:07000000022C210222412223
:03000B000218D9FF
:0300130002219C2B
:10001B00021D49EFB42C00400261DD90002C25E05D
:10002B00730184019801AE01C401DA01F02104616E
:10003B00DD211A21302146215C21722188219E610C
:10004B00DD21B421C921DE21F34109411E41334198
:10005B0048415D41724187419C41B141C641DB61E1
:10006B00DD41F06105611B61306145615A61706171
:10007B00DD6186619C61B261C890FFA4E054CF44FE
:10008B0020F0E054F34408F0D2C2C2C12290FFA486
:10009B00E054CF4420F0E5EC54FC4402F5ECD2C222
:1000AB00C28022E5FF543F4480F5FF90FFA4E0544B
:1000BB00CF4420F0D2B7C2C222E5FF54CF4420F583
:1000CB00FF90FFA4E054CF4420F0D2B6C2C22290DE
:1000DB00FFA4E054CF4420F0E5FF543F4480F5FFEC
:1000EB00D2C2C2B72290FFA4E054F34408F0E0540C
:1000FB00CF4420F0D2C1C2C222E5EC54FC4402F53D
:10010B00EC90FFA4E054CF4420F0D280C2C22290E6
:10011B00FFA4E054F34408F0E5EC54FC4402F5EC86
:10012B00D2C1C2802290FFA4E054F34408F0E5FF53
:10013B00543F4480F5FFD2C1C2B722E5FF54CF44F0
:10014B0020F5FF90FFA4E054F34408F0D2B6C2C1EF
:10015B002290FFA4E054F34408F0E5FF54F3440865
:10016B00F5FFD2C1C2B52290FFA4E054F34408F0CE
:10017B00E5FF54CF4420F5FFD2C1C2B622E5EC54C3
:10018B00FC4402F5EC90FFA4E054F34408F0D28059
:10019B00C2C122E5FF543F4480F5FF90FFA4E05419
:1001AB00F34408F0D2B7C2C122E5FF54CF4420F587
:1001BB00FFE5FF543F4480F5FFD2B6C2B722E5EC12
:1001CB0054FC4402F5ECE5FF54CF4420F5FFD280FC
:1001DB00C2B622E5FF543F4480F5FFE5FF54CF4400
:1001EB0020F5FFD2B7C2B622E5FF54F34408F5FF62
:1001FB0090FFA4E054CF4420F0D2B5C2C222E5FF59
:10020B0054F34408F5FFE5EC54FC4402F5ECD2B58D
:10021B00C28022E5FF543F4480F5FFE5EC54FC44DB
:10022B0002F5ECD2B7C28022E5FF54CF4420F5FF94
:10023B00E5EC54FC4402F5ECD2B6C28022E5FF5447
:10024B00FC4402F5FFE5FF54CF4420F5FFD2B4C2C6
:10025B00B622E5FF54FC4402F5FFE5FF54F34408D6
:10026B00F5FFD2B4C2B522E5FF54F34408F5FFE520
:10027B00FF54FC4402F5FFD2B5C2B422E5FF54CFC4
:10028B004420F5FFE5FF54F34408F5FFD2B6C2B5A1
:10029B0022E5FF54F34408F5FFE5FF543F4480F596
:1002AB00FFD2B5C2B722E5FF543F4480F5FFE5FF0F
:1002BB0054F34408F5FFD2B7C2B522E5FF54F3441B
:1002CB0008F5FFE5FF54CF4420F5FFD2B5C2B622A7
:1002DB00E5FF54CF4420F5FFE5FF54FC4402F5FF46
:1002EB00D2B6C2B422E5FF54FC4402F5FFE5EC5450
:1002FB00FC4402F5ECD2B4C2802290FFA4E054CFB0
:10030B004420F0E5FF54F34408F5FFD2C2C2B522F6
:10031B00E5EC54FC4402F5ECE5FF54F34408F5FF1F
:10032B00D280C2B522E5EC54FC4402F5ECE5FF5457
:10033B00FC4402F5FFD280C2B422E5FF543F448057
:10034B00F5FFE5FF54FC4402F5FFD2B7C2B422908F
:10035B00FFA4E054F34408F0E5FF54FC4402F5FF1E
:10036B00D2C1C2B42290FFA4E054CF4420F0E5FFE9
:10037B0054FC4402F5FFD2C2C2B422E5FF54FC4444
:10038B0002F5FF90FFA4E054CF4420F0D2B4C2C2D8
:10039B002290FFA4E054CF4420F0E5FF54CF44203B
:1003AB00F5FFD2C2C2B622E5FF54F34408F5FF9025
:1003BB00FFA4E054F34408F0D2B5C2C122E5FF54C8
:1003CB00FC4402F5FF90FFA4E054F34408F0D2B4D0
:1003DB00C2C1228F2C8E2B8D2A8C298B2D8A2E8994
:1003EB002F854252854151854050853F4F755300B3
:1003FB0075540C7F007EEB7D417C00AB2CAA2BA9A6
:10040B002AA829122CADE4F553F554745B2554F549
:10041B008274303553F583E493FEEFC39E400E0593
:10042B0054E55470020553640C455370DEE55425B6
:10043B00E0FFE55333FE74692FF58274303EF5838C
:10044B00E493AB2DAA2EA92F122926E55425E0FF04
:10045B00E55333FE74682FF58274303EF583E493D5
:10046B00AB30AA31A932122926745B2554F582745C
:10047B00303553F583E493FFE4FCFDFEAB2CAA2B44
:10048B00A92AA829122A258F4A8E498D488C47E420
:10049B007F07FEFDFCAB42AA41A940A83F122A25CB
:1004AB00A804A905AA06AB07AF4AAE49AD48AC47AD
:1004BB00122CADEF2401FFE43EAB33AA34A9358FE8
:1004CB00F0122A06E47F07FEFDFCAB42AA41A940CD
:1004DB00A83F122A25A804A905AA06AB07AF4AAE66
:1004EB0049AD48AC47122CADAC00AD01AE02AF0329
:1004FB00C004C005C006C007E47F07FEFDFCAB428D
:10050B00AA41A940A83F122A25A804A905AA06AB0F
:10051B0007D007D006D005D004C3EF9BFFEE9AFEA1
:10052B00ED99FDEC98FC780C122B88C004C005C02B
:10053B0006C007E47F07FEFDFCAB42AA41A940A819
:10054B003F122A257804122B74A804A905AA06AB1E
:10055B0007D007D006D005D004122CAD8F468E45A0
:10056B008D448C43E4FFFEE5445403FDE4FC78101A
:10057B00122B61AB39AA3AA93BEF122926E546FFAC
:10058B00E545FEAB36AA37A938EE8FF0122A067571
:10059B005300755401AE53AF54AB07AA06E4F9F8F8
:1005AB00AF42AE41AD40AC3F122CADA804A905AA99
:1005BB0006AB07AF2CAE2BAD2AAC29122CADAE027D
:1005CB00AF03C006C007E55425E0FFE55333AB0787
:1005DB00FAE4F9F8AF42AE41AD40AC3F122CADC3DB
:1005EB00D0E09FFFD0E09EFE122D2FEE3395E0FD65
:1005FB00FCC004C005C006C007E55425E0FFE55369
:10060B0033AB07FAE4F9F8AF42AE41AD40AC3F1261
:10061B002CADD003D002D001D000C3EF9BFBEE9AE0
:10062B00FAED99F9EC98F8AE53AF54E4FCFD122AAD
:10063B00258F4E8E4D8D4C8C4BAF52AE51AD50AC79
:10064B004FAB4EAA4DA94CA84BC3122B50500C8547
:10065B004E52854D51854C50854B4F0554E554708A
:10066B00020553C39404E55394005002A1A07553A3
:10067B0000755408AE53AF54AB07AA06E4F9F8AFB4
:10068B0042AE41AD40AC3F122CADA804A905AA0661
:10069B00AB07AF2CAE2BAD2AAC29122CADAE02AFF3
:1006AB0003C006C007E55425E0FFE55333AB07FA5B
:1006BB00E4F9F8AF42AE41AD40AC3F122CADC3D024
:1006CB00E09FFFD0E09EFE122D2FEE3395E0FDFC58
:1006DB00C004C005C006C007E55425E0FFE5533351
:1006EB00AB07FAE4F9F8AF42AE41AD40AC3F122C88
:1006FB00ADD003D002D001D000C3EF9BFBEE9AFA32
:10070B00ED99F9EC98F8AE53AF54E4FCFD122A25A1
:10071B008F4E8E4D8D4C8C4BAF52AE51AD50AC4F6E
:10072B00AB4EAA4DA94CA84BC3122B50500C854E67
:10073B0052854D51854C50854B4FAB42AA41A94038
:10074B00A83F7F007EE07D2E7C00122CADAB52AA21
:10075B0051A950A84F122A25AB3CAA3DA93E122BFA
:10076B009B7F012290002CE064086002E1F890006E
:10077B0033E004F0E024FE601824FD601F24FC60CD
:10078B002D24FD604224FD605A240E70607D1C8078
:10079B00027D1BE4FF121E417D1C80097D1BE4FFC3
:1007AB00121E417D1B7F01121E417D1C80107D1B83
:1007BB00E4FF121E417D1B7F01121E417D1B7F0238
:1007CB00121E417D1C80177D1BE4FF121E417D1BF9
:1007DB007F01121E417D1B7F02121E417D1B7F0379
:1007EB00021E41E4900033F07F0612100022122407
:1007FB0092756614228F158E148D138C12E4FF12D2
:10080B00227E7F2D12267F8E1F8F20E51F54F7FC33
:10081B00AD207F2D1222CC7F0A12267F8E1F8F20B8
:10082B00AC1FE52054EFFD7F0A1222CC7F3D122630
:10083B007F8E1F8F20AC1FE52054BFFD7F3D122202
:10084B00CC7F3C12267F8E1F8F20AC1FE52054FDE2
:10085B00FD7F3C1222CC75300075310075321E7550
:10086B0033007534007535187536007537007538DB
:10087B001A753900753A00753B1C753C00753D00C7
:10088B00753E23E47542C075415DF540F53FFB7A3B
:10089B0000791DAF15AE14AD13AC121203DEE51DBE
:1008AB00FCE51925E025E04CFCE4E51E75F040A4C1
:1008BB00FFEC45F0FEEEFCEF451CFD7F081222CC51
:1008CB00AC1AE51B4401FD7F091222CC7F0E1226C8
:1008DB007F8E1F8F20AC1FE5204480FD7F0E1222E0
:1008EB00CC7F0E12267F8E1F8F20E51F4401FCAD9F
:1008FB00207F0E1222CC7F027E001223E97F0E1284
:10090B00267F8E1F8F20E51F54FEFCAD207F0E121D
:10091B0022CC1222BA7F0D12267F8E1F8F20E51F4D
:10092B005408131313541FF520751F00751601750A
:10093B00172CE520451F702D7F0AFE1223E97F0D32
:10094B0012267F8E1F8F20E51F5408131313541F7D
:10095B00F520751F00E517151770021516E51745DD
:10096B001670CFFF227F2E12267F8E1F8F20E51F42
:10097B00541CF5277528001313543FF528752700D1
:10098B00C39403E52794004008752700752807805A
:10099B0012E52825E0FFE52733FEEF2403F528E4D5
:1009AB003EF527E52825E025E0FEE51F54E3AD20C5
:1009BB004EF51FEDF5207F2D12267F8E218F22E520
:1009CB00214408FCAD227F2D1222CCAD20AC1F7F21
:1009DB002E1222CC7F2A12267F8E1F8F20E52054C9
:1009EB007EFFE4C313F527EF13F5287F3D12267F17
:1009FB008E1F8F20AE1FE52054804440FFE5274E0D
:100A0B00FCE5284FFD7F3D1222CC7F0A12267F8EFC
:100A1B001F8F20AC1FE5204410FD7F0A1222CC7FD4
:100A2B003C12267F8E1F8F20AC1FE5204402FD7FDA
:100A3B003C1222CC1222BA7F0D12267F8E1F8F20E2
:100A4B00E51F5408131313541FF520751F0075165B
:100A5B000175172CE520451F702E7F0D12267F8EFA
:100A6B001F8F20E51F5408131313541FF520751FF8
:100A7B00007F0A7E001223E9E51715177002151681
:100A8B00E517451670CEFF227F0A7E001223E9126E
:100A9B00229C7F0122E565600BE4F5657564027F9E
:100AAB00011222D7E56114B41100400281B2900A01
:100ABB00C325E0500205837381A141E76132614296
:100ACB006160616C619A61CA61E8810A8138815EFB
:100ADB00818281A181A181A381A181AFE4F5619084
:100AEB00002CE0FF64026009EF64016004EFB40BBB
:100AFB000A90002EE0700404F0801090002CE0B4FB
:100B0B00030990002FE4F0A3740CF090002CE0B4D8
:100B1B000207E4900031F0800A90002CE0640E6034
:100B2B000281B27F0E819E90002CE06006640D6006
:100B3B000281B27F01819E90002CE06402600281F1
:100B4B00B290002EE0700281B2E4F0A3F0A3740C1B
:100B5B00F07F03819E90002CE0600281B27F0B81BD
:100B6B009E90002CE0B40405757204800D90002C4F
:100B7B00E0B4050A75720412258E7F05800C900077
:100B8B002CE0B40A0812259E7F0A12100081AFE4F4
:100B9B00F56190002CE0FF640470028148EFB4050E
:100BAB00028148EF6402600281B290002EE0640182
:100BBB00600281B27D017F2012262B7F0A819EE489
:100BCB00F56190002CE0B402087572047F041210DA
:100BDB000090002CE06405600281B28178E4F5613D
:100BEB0090002CE06405600281B290001BE0700263
:100BFB0081B275720412266312258E7F05819E9039
:100C0B00002CE0B40405757204800D90002CE0B448
:100C1B00050A757204121FEE7F05800C90002CE004
:100C2B00B40A081225367F0A1210008077E4F561AA
:100C3B0090002CE0FF64046004EFB40506E4900020
:100C4B001BF022EF6402705F7D017F2012262B7F49
:100C5B000A8040E4F56190002CE0B4020875720440
:100C6B007F0412100090002CE06405703A1226638A
:100C7B0090001B7401F022E4F56190002CE06405F8
:100C8B00702590001BE0601F757204122663121F03
:100C9B00EE7F05021000800C90002CE0B402057F63
:100CAB0007121000E4F5612290002CE0FF64037042
:100CBB0002C139EF64017002C139308102A189127E
:100CCB0024D48E0C8F0DAC0CAD0DE41228A37B3D00
:100CDB007A0A790378411227888F0B8E0A8D098C3B
:100CEB0008E4FBFA79A078C11226948F0B8E0A8D3B
:100CFB00098C08E4FFFE7DBE7C43AB0BAA0AA90955
:100D0B00A80812282560044002A1C7E4FFFE7DB4A9
:100D1B007C43AB0BAA0AA909A8081228256004403A
:100D2B0002A1E8E4FFFE7DAA7C43AB0BAA0AA9094A
:100D3B00A80812282560044002C10DE4FFFE7DA027
:100D4B007C43AB0BAA0AA909A808122825600F40FF
:100D5B000D6370FFE5706002C130E4FFC136E4FF44
:100D6B00FEFDFCAB0BAA0AA909A8081228256002F4
:100D7B005002C139E4FF12264F7F0302100020817D
:100D8B0002C1391224D48E0C8F0DAC0CAD0DE412B4
:100D9B0028A37B487AE1790278411227888F0B8E42
:100DAB000A8D098C087F007E807DCE7C43AB0BAA1D
:100DBB000AA909A808122825600640047F04806B45
:100DCB00E4FFFE7DC37C43AB0BAA0AA909A808125A
:100DDB0028256011400F6370FFE57060047F03806E
:100DEB004A7F048046E4FFFE7DB97C43AB0BAA0A25
:100DFB00A909A8081228256011400F6370FFE57040
:100E0B0060047F0280257F038021E4FFFEFDFCABA5
:100E1B000BAA0AA909A808122825601240106370B2
:100E2B00FFE57060047F0180027F0212264F228F44
:100E3B000F8E0E8D0D8C0C7F0312267FEE547FFCD4
:100E4B00AD077F031222CC7F327E001223E97F0392
:100E5B0012267FEF54FEAC064401FD7F031222CC19
:100E6B007F2412267FEE54EF4410FCAD077F241233
:100E7B0022CC7F4712267FEE4402FCAD077F471240
:100E8B0022CC7F0A12267FEE4402FCAD077F0A12AA
:100E9B0022CC7F1C12267FEE54F1FEEF54E1AC0600
:100EAB004402FD7F1C1222CC7F1E12267FEF54DFE3
:100EBB00AC064420FD7F1E1222CC7F3012267FEE23
:100ECB005480441AFC7439FD7F301222CC7F3112CE
:100EDB00267FAC0674EBFD7F311222CC7F391226B4
:100EEB007FEE54FC4403FC74A8FD7F391222CC7DA9
:100EFB00367C777F3A1222CC7F2512267FEE54C0A8
:100F0B004403FC7422FD7F251222CC7F2612267F00
:100F1B00AC06EF54FBFD7F261222CC7F1F12267FDF
:100F2B00EE5480FEEF54F0FFEE4476FCEF4401FDEF
:100F3B007F1F1222CC7D127C137F201222CC7D14BA
:100F4B007C177F211222CC7F1012267FAC06EF4438
:100F5B0010FD7F101222CC7F4512267FEF54F0AC90
:100F6B00064407FD7F451222CC7F2D12267FEF54BE
:100F7B00F8AC064403FD7F2D1222CC7F01122260B8
:100F8B00AF0FAE0EAD0DAC0C120800EF60177F2A41
:100F9B001224FD7F011220DB7F02121F8F7F0112B3
:100FAB0021037F01227F00228B0E8A0F89101229C9
:100FBB00A3FDACF07F121222CCAB0EAA0FA910909E
:100FCB0000021229CEFDACF07F131222CCAB0EAA7D
:100FDB000FA9109000041229CEFDACF07F14122241
:100FEB00CCAB0EAA0FA9109000061229CEFDACF0C7
:100FFB007F170222CC90002CEFF024FEB40D0040A2
:10100B0002210C90101825E0500205837301330167
:10101B004101530160016C0181210C01B101B4014B
:10102B00C201F1210C2102227F0112145112255A07
:10103B001225480218007F011222D7E4FF12210368
:10104B001226591222F321051224347F0212145155
:10105B0012230F80081218007F021214517FE880B0
:10106B00417F2A1224FD121E9212202E121F2D12C6
:10107B00232B7F7821077F011220DB7F0B1224FDAE
:10108B00900017E06004E4F08008900019E09000F5
:10109B0017F01225481223471224347F03121451E0
:1010AB007F207E0380580223471222037F011214F4
:1010BB00517F907E01804790002FE4F0A37405F0E0
:1010CB00E4FF1222D77F011220DB90001CE06004AA
:1010DB00E4F0800690001C7401F012255A121E4E8B
:1010EB007F907E01801812222290001FE0FF1200D9
:1010FB00067F907E0180071223CF7FC87E001226C9
:10110B006D22E4FFEF75F003A42455F8E654FEF6C8
:10111B000FBF04F020C8034355012093034358012C
:10112B00209203435B01209103435E01E4FFEF75C3
:10113B00F003A42455F8E6FE1313135401FDEE54EB
:10114B0001FE6D5E540125E0FEEF75F003A42455FE
:10115B00F8E654FD4EF6E6FEC3135401FDEE5401C2
:10116B006DFEEF75F003A42455F8E6FD131313542D
:10117B00016E540125E025E0FEEF75F003A4245524
:10118B00F8ED54FB4EF6E6FE540133333354F8FDC1
:10119B00EF75F003A42455F8EE54F74DF6E6FE1365
:1011AB001313541F20E00CEF75F003A42456F8E43E
:1011BB00F608F60FEF640460022139E55520E016BE
:1011CB00E55820E011E55B20E00CE55E20E007E44C
:1011DB00F562F56380061207F975650112241CE5AB
:1011EB006370091221C11221E212150D22D3900056
:1011FB002AE09400900029E09400400690002B74A4
:10120B0001F090002BE0700241CB900029E07002BE
:10121B00A3E0600241CB90002BF0A3E024FDB40CC3
:10122B0000400241CB90123A25E0500205837341F6
:10123B00534175417F418B417F41CB41CB4198411C
:10124B00AD41B141CB41BF22E4FF1220DB12265945
:10125B00121D033081107F0D121000E5EE54CF44A8
:10126B0020F5EEC2A222E4FF8053121E9212202E12
:10127B007F0880491207F97F041214517F08803DC3
:10128B0012255A1225481218007F02803090001840
:10129B00E0FD7F03122403E4FD7F2012262B7F0247
:1012AB00801B7F08801790001FE0FD7F071224032F
:1012BB007F028009E4FD7F2012262B7F0212100093
:1012CB002290002CE064016002618F900032E004F8
:1012DB00F0E024F6603A24FE604F24FE606424FEA6
:1012EB00607924FE7002618224116002618F1224E6
:1012FB0064D2A1121C731223637F701221517D1AC9
:10130B00E4FF121E417D117F01121E417D0F805B98
:10131B007D1CE4FF121E417D1C7F01121E417D1CB2
:10132B007F02121E417D1180497D1CE4FF121E417C
:10133B007D1C7F01121E417D117F02121E41E4FDB7
:10134B0080307D1CE4FF121E417D117F01121E4176
:10135B00E4FD7F02121E417D0180177D11E4FF1217
:10136B001E41E4FD7F01121E417D017F02121E41D1
:10137B007D1C7F03021E41E4900032F012176A7F3E
:10138B000212100022AB07AA06E4F50CD3EB940F64
:10139B00EA942740047A277B0FAE02AF03EF4E602F
:1013AB000B050C7C007D0A12293880F1E50C1460CA
:1013BB002314603E1460551460662404600281504F
:1013CB007D1CE4FF121E410F121E410F121E41E441
:1013DB00FD0F806E7D1CE4FF121E410F121E410F8C
:1013EB00121E417C007D0AAF03AE021229387F0327
:1013FB0080507D1CE4FF121E410F121E2A7C007DC3
:10140B000AAF03AE021229387F0380367D1C121EF1
:10141B00117C007D0AAF03AE021229387F038022B4
:10142B007C037DE8AF03AE021229387C007D0A12E3
:10143B002938121E11AE02AF037C007D0A12293827
:10144B007F03121E41221224E9EFC454F0FE9000D8
:10145B0021E04EF0A3E0F090001AE090002160052F
:10146B00E044038003E04402F0A3E0F0900018E0B6
:10147B00FF900021E0121E8DE47B64FAF9F8122A2A
:10148B00B07808122B617808122B88121E88E47B27
:10149B0064FAF9F8122AB07808122B61C374FF9F13
:1014AB00FFE49EFE121E88E47B64FAF9F8122AB060
:1014BB007808122B88900025121E8BE47B64FAF9B6
:1014CB00F8122AB0C374FF9FFFE49400FE9000252E
:1014DB00E04EF0A3E04FF0900017E0FDFE900027E8
:1014EB00E04EF0A3E0F0C374FF9DFFE49400FE9088
:1014FB000027E04EF0A3E04FF07B017A0079210248
:10150B000FB3E55530E336C3E55794F4E556940134
:10151B0050080557E55770020556E55764104556B8
:10152B007003756103E557643245567003756104AA
:10153B00E557B45E08E556B40103756105E558300F
:10154B00E329C3E55A94F4E55994015008055AE58B
:10155B005A70020559E55A641945597003756108AB
:10156B00E55A640445597003756109E55B30E3295D
:10157B00C3E55D94F4E55C94015008055DE55D7091
:10158B0002055CE55D6419455C700375610CE55DF6
:10159B006404455C700375610DE55E30E31EC3E5C5
:1015AB006094F4E55F940150080560E560700205F6
:1015BB005FE5606432455F700375611022E5726010
:1015CB00021572E5726002C15C6371FF90002CE042
:1015DB0064047025E571600512230F801C7D1CE4EB
:1015EB00FF121E417D1C7F01121E417D1C7F0212CA
:1015FB001E417D1C7F03121E4190002CE064057080
:10160B0025E5716005121800801C7D1CE4FF121E7D
:10161B00417D1C7F01121E417D1C7F02121E417DEC
:10162B001C7F03121E4190002CE064077023E571B0
:10163B0060030223477D1CE4FF121E417D1C7F01CA
:10164B00121E417D1C7F02121E417D1C7F03121E48
:10165B004122900001E004F0E0C394034005E4F064
:10166B001215C81212CC12076F121B7B900019E0D7
:10167B0004F0E0B4FE037401F0900020E06037E466
:10168B00F090002CE0702A7F0D121000122464D20F
:10169B00A1121C731223637F7012215190002FE44F
:1016AB00F0A37405F0E5EE54CF4420F5EEC2A28012
:1016BB00057F0312100090002CE0B40D1B20811845
:1016CB00E5EE54CF4420F5EED2A290002FE4F0A328
:1016DB007405F0E4FF12100022EF122BD11710103B
:1016EB00171520171A30171F40172450172960178A
:1016FB003270173B80174490174DA01756B0175FE9
:10170B00D00000176290FFC1802090FFC180249011
:10171B00FFC1802890FFC1802C90FFC1803090FFCB
:10172B00C1E04420F0803090FFC3E04401F08027FB
:10173B0090FFC3E04402F0801E90FFC3E04404F02E
:10174B00801590FFC3E04408F0800C90FFC3E04489
:10175B0010F0800343A640E5D8540F4FF5D8221262
:10176B002510E5EE54CF4420F5EED2A2750B807513
:10177B000A387509017508007F0112267FEF645442
:10178B007003EE644B602BE50B24FFF50BE50A347D
:10179B00FFF50AE50934FFF509E50834FFF508AF55
:1017AB000BAE0AAD09FC4D4E4F70CD7FB87E2212A9
:1017BB001390121E92120E3AE4FF12205C7F01125C
:1017CB00205C7F081220B2E4FF1222D77F010214A3
:1017DB005190FFCAE0548FF0E044F0F05389CF43AF
:1017EB008920C28E758DFD758BFD43B808D28ED2C4
:0417FB00ABD2AF229C
:1018000090001AE06035900016E02432F50E7D0B52
:10181000E4FF121E41E50EB464047D1D80027D1BB1
:101820007F01121E41E50E75F06484E5F075F00A43
:1018300084FD7F02121E41E50E80267D0AE4FF1220
:101840001E417D1B7F01121E41900016E075F06461
:1018500084E5F075F00A84FD7F02121E41900016A7
:10186000E075F00A84ADF07F03121E4122D3900090
:101870001EE0940A90001DE09400405C90002CE073
:101880006402705490001CE0604E900034E004F05C
:10189000E0B4011C7D1CE4FF121E41E4FD7F011237
:1018A0001E41E4FD7F02121E417D1C7F03021E418A
:1018B000900034E0B402217D1CE4FF121E417D1C27
:1018C0007F01121E417D1C7F02121E417D1C7F0381
:1018D000121E41E4900034F022C0E0C0F0C083C08A
:1018E00082C0D075D000C000C001C002C003C004D7
:1018F000C005C006C0070577E577B4040675770014
:1019000012110DD390002AE09400900029E0940079
:10191000400CA3E024FFF0900029E034FFF0121EF9
:10192000F7122643D007D006D005D004D003D0024A
:10193000D001D000D0D0D082D083D0F0D0E032E43B
:10194000F508F508E50825E025E02408F582E434EB
:1019500000F583E0FEA3E04E7040E50825E025E0B9
:10196000240AF582E43400F583E0FEA3E0FFE508F5
:1019700025E025E02408F582E43400F583EEF0A3A9
:10198000EFF0E50875F003A42402F582E43400F5D5
:1019900083A3E0FAA3E0F9122BF70508E508C39446
:1019A0000240A1221224BEEF60337F0212247B90FA
:1019B0000016EFF07F0312247B900018EFF07F04F5
:1019C00012247B900017EFF07F0512247B90001CFF
:1019D000EFF07F0712247B90001FEFF0229000169B
:1019E0007401F09000187408F0E4900017F0900073
:1019F0001C04F0E490001FF07D12FF1224037D12FE
:101A00007F01122403121F2D2290FFA4E054CFF077
:101A1000E054F3F053ECFC53FF3F53FFCF53FFF37D
:101A200053FFFC0567E567D39407400FE4F56705AE
:101A300068E568D394054003E4F568746A2568F89E
:101A4000E6FD7C0074807E00A867088006CEA2E7D1
:101A500013CE13D8F8FFEE5CFEEF5D4E600CE56828
:101A600075F008A42567FF12001E2290001CE0609C
:101A70000E90001EE004F0700690001DE004F0904F
:101A8000001DE07004A3E0640A700C90002CE0B428
:101A900002057F010222D790001DE0B40111A3E0EE
:101AA000B42C0C90002CE0B40205E4FF0220DB9083
:101AB000001DE0B40311A3E0B4840C90002CE0B44A
:101AC00002057F03121000228D11751201EF24F020
:101AD000F51325E0FFF5D3E513C41313135401FEEA
:101AE000F5D275D10BADD5ED651160338FD38ED2A4
:101AF0008511D51225AE75D7A575D7F175D1091207
:101B000025BDE51325E0F5D3E513C41313135401E4
:101B1000F5D275D10BADD5ED65116003E4F512AFCB
:101B200012228D2AEF75F003842434F52BEF75F023
:101B30000384C3740295F075F005A4F52CAF2B1245
:101B4000267FAD07AC06741F7E00A82C088005C355
:101B500033CE33CED8F9F4FFEEF45CFCEF5DFD7EBE
:101B600000E52AA82C088005C333CE33CED8F9FF70
:101B7000EE4CFCEF4DFDAF2B0222CC90001CE06040
:101B8000511225E9EF603C90002CE064027034D3E0
:101B900090001EE0942C90001DE09401400CE4FFA6
:101BA0001222D77F011220DB8014D390001EE09414
:101BB0000A90001DE094004012E4FF1222D7121890
:101BC00000800890002CE064026007E490001DF0A3
:101BD000A3F02290FFD574FFF0F5FCF5ECE4F5805E
:101BE000A374FFF0F5FDF5EDE4F590A374FFF0F5B7
:101BF000FEF5EEE4F5A0A374FFF0F5FFF5EFE4F5D4
:101C0000B090FFE574FFF090FFB4F090FFA4F0E413
:101C1000F5C090FFE774FFF090FFB9F090FFA9F0D6
:101C2000E4F5E822AC07A905E4FBFA12237EEC12E6
:101C30001FBFEF6036AF01122088121FC5EF602B67
:101C400012237EEC4401121FC1EF601F121F5FEFD1
:101C5000FA122642C2EB12263DC2EA122642D2EB0B
:101C6000122642121F5FEFFB122642122399AE0288
:101C7000AF0322E4FFEF75F003A42455F8E654FE09
:101C8000F654FDF654FBF654F7F6EF75F003A42472
:101C900056F8E4F608F60FBF04DB90FFA5E054FC0D
:101CA0004401F0E5ED54F34404F5EDE5ED54CF4483
:101CB00010F5EDE5ED543F4440F5ED22121BD37FC6
:101CC000647E001223E9E5ED54F34404F5EDE5EDFF
:101CD00054CF4410F5EDE5ED543F4440F5ED1226A8
:101CE0008753EFFC121D03E5EE54CF4420F5EED2EE
:101CF000A2C2A2E5EE54F34408F5EEC2A153ECF300
:101D000002261290FFA4E054CF4420F0E054F344A4
:101D100008F0E5EC54FC4402F5ECE5FF543F448048
:101D2000F5FFE5FF54CF4420F5FFE5FF54F34408E9
:101D3000F5FFE5FF54FC4402F5FFC2C2C2C1C280F8
:101D4000C2B7C2B6C2B5C2B422C0E0C0F0C083C040
:101D500082C0D075D000C000C001C002C003C00462
:101D6000C005C006C00790002CE06005121A09806B
:101D700003121D03D007D006D005D004D003D00233
:101D8000D001D000D0D0D082D083D0F0D0E0327556
:101D9000A68512264312244C1226051226761226F8
:101DA0001F122363121C737F70122151E5EE54CF72
:101DB0004420F5EED2A290002FE4F0A37405F012B7
:101DC00021771217DC12252312193F1211F8120A7B
:101DD000A080F5E4FF90000AF0A37464F090000E78
:101DE000E4F0A37414F0EF25E025E0240AF582E482
:101DF0003400F583E0FCA3E0FDEF25E025E02408B6
:101E0000F582E43400F583ECF0A3EDF00FBF02D6C9
:101E100022E4FF121E417C007D64AF03AE02122952
:101E2000387C007D0A1229387F01121E417C007D1A
:101E30000AAF03AE021229387C007D0A1229387FCE
:101E400002ED90309193FE746A2FF8A6062290005E
:101E50001CE07D0A6017E4FF121E41E4FD7F0112C1
:101E60001E417D167F02121E417D1C8015E4FF126B
:101E70001E41E4FD7F01121E417D0F7F02121E41B3
:101E80007D0F7F03121E4122900023E04EF0A3E05D
:101E90004FF090001AE0FF75F090A42437F582E52A
:101EA000F0342DF583EF2583F583C083C082900045
:101EB00016E0D082D08375F004122BC5122BB52208
:101EC000A907AC058B2DAF02AB0712237EE9121FC9
:101ED000BFEF601EAF04122088121FC5EF6013AF62
:101EE00003122088121FC5EF6008AF2D1220881240
:101EF0001FC5C2EA022399E4FFEF25E025E024088C
:101F0000F582E43400F583E0FCA3E0D39400EC9484
:101F1000004015EF25E025E02408F582E43400F5C3
:101F20008374FFF5F012298D0FBF02CD22900016A9
:101F3000E0FD7F02122403900018E0FD7F031224CD
:101F400003900017E0FD7F0412240390001CE0FDC5
:101F50007F0512240390001FE0FD7F07022403E4A5
:101F6000FF90FFA9E0543F4440F0E4FEEF25E0FF7E
:101F700012263DA2EBE4334207122642C2EA0EBE0D
:101F800008EA12264290FFA9E0543F4480F0228FD5
:101F9000107F1F12267FAD07AC06E51075F080A4F8
:101FA000FFEC54FEFCED547FFDE5F04CFCEF4DFDE5
:101FB0007F1F1222CC7F147E001223E97F0122545E
:101FC000FEFF12208890FFA9E0543F4440122637BC
:101FD000122642A2EBE433FF122642C2EA12264244
:101FE000E0543F4480F0EF7F0070027F01229000B8
:101FF00016E0B401047432F022900016E014F022CE
:10200000D3900030E0940090002FE09400401E90A8
:10201000002CE07018900030E024FFF090002FE0DA
:1020200034FFF0E07002A3E07003121CBC228F1199
:102030008E108D0F8C0EE4FF1221037F647E001240
:1020400023E9AF11AE10AD0FAC0E1208007F0112E4
:102050002103E4FF12205C7F0102205CEF7F1F6000
:102060000C12267F8E128F13431240800A12267F95
:102070008E128F135312BFAD13AC127F1F1222CCDE
:102080007F147E001223E922E4FEFD122642EF5463
:1020900080FE64806004C2EB8002D2EB122642EF25
:1020A00025E0FF12263DC2EA1226420DBD08DC02E1
:1020B00026428F0C7F1C12267FAD07AC06E50C75FF
:1020C000F020A4FFEC54FEFCED541FFDE5F04CFCA9
:1020D000EF4DFD7F1C1222CC7F01228F10851075E1
:1020E0007F0F12267FAD07AC06E51075F008A4FF40
:1020F000ED54F7FDEC45F0FCED4FFD7F0F1222CCC7
:102100007F01228F127F1F12267FAD07AC06E512DA
:10211000C43333335480FEEC547F4EFC7F1F1222B5
:10212000CC7F147E001223E97F012212186D9000EB
:1021300000E004F0E0C394024005E4F0121A6B9052
:10214000002CE06003120CB312200012257E022541
:10215000DBAC0790FFADE4F075A685FB7D017F60E9
:102160001225CC90FF60E04480F0AF041216E4D258
:10217000DB000000D2DA2290FFCAE054F8F0E0441D
:1021800007F05389F0438902C28C758C62758A62AC
:1021900053B8FDD28DD28CD2A9D2AF22C0E0C08379
:1021A000C082E5AC30E11375AC3890002FE4F0A3A9
:1021B0007405F09000207401F000D082D083D0E04C
:1021C00032E55530E103756101E55830E103756191
:1021D00006E55B30E10375610AE55E30E103756198
:1021E0000E22E55530E203756102E55830E20375D1
:1021F0006107E55B30E20375610BE55E30E2037574
:10220000610F227D1AE4FF121E417D1B7F01121E09
:1022100041E4FD7F02121E41900018E0FD7F0302A1
:102220001E417D0EE4FF121E417D0C7F01121E41F6
:102230007D1B7F02121E4190001FE0FD7F03021EE6
:1022400041C0E0C083C082E5AC30E00D75AC389091
:10225000002FE4F0A37405F000D082D083D0E032E8
:102260008F107F2412267FAD07AC06E510C454F012
:10227000FEEC54EF4EFC7F241222CC7F01228F2AE9
:102280007F3412267FAD07AC06E52AC433333354BE
:1022900080FEEC547F4EFC7F340222CC7F01122260
:1022A0007EE4F529E52990308293FDAF29121B22A7
:1022B0000529E529C3940F40EB227F0A12267F8E61
:1022C0001F8F20AC1FE5204420FD7F0AAB05AA0428
:1022D000AD077F6A021EC08F0E850E767F1C122608
:1022E0007FEF54FEFFEEFCEF450EFD7F1C1222CC6B
:1022F0007F01227D1CE4FF121E41E4FD7F01121EBE
:10230000417D0F7F02121E417D0F7F03021E417D22
:1023100005E4FF121E417D0E7F01121E417D147FD8
:1023200002121E417D1C7F03021E417D1CE4FF1230
:102330001E41E4FD7F01121E417D137F02121E41EA
:102340007D1C7F03021E417D1CE4FF121E417D01A6
:102350007F01121E417D0D7F02121E417D1C7F03F5
:10236000021E4190FFA4E054CFF0E054F3F053EC90
:10237000FC53FF3F53FFCF53FFF353FFFC2290FF6B
:10238000A9E0543F4480F0E054CF4420122637C2E5
:10239000EB122642C2EA02264290FFA9E0543F44D3
:1023A00080F0122642C2EA122642C2EB12263DD229
:1023B000EB02264290FFA2E0FF5307EE430701EF36
:1023C000F090FFA0E0FF5307F543070AEFF02290DB
:1023D0000031E0F4F060071222037D01800512183D
:1023E00000E4FD7F2012262B22EF4E6015E4FDFC59
:1023F0000DBD00010CBC02F8BD59F5EF1F70EA1EBF
:1024000080E7228F0E8D0F75100AAD0FAF0E121AD6
:10241000C8EF7007E510D3940050EF22E55530E087
:1024200012E55830E00D7563010562E562B43203D0
:102430007561112290001AE060067F187EF2800418
:102440007FF87EEE7D097C0012202E22E59154FB60
:10245000759237F591E59120E2FB7F0A7E00122507
:102460006C0225F7E5EE54F34408F5EE53EFFC5308
:10247000ECF3E5ED54FC4401F5ED22EF24F0FF25EB
:10248000E0F5D3EFC41313135401F5D275D10BAF9C
:10249000D52290FFD5E04401F090FFD8E044F0F061
:1024A00090FFE5E04406F02290FFD5E054FEF09066
:1024B000FFD8E0540FF090FFE5E054F9F022E4FF7C
:1024C00012247BBF120B7F0112247BBF12037F01FA
:1024D000227F0022D2DB000000D2DA20DAFDD2DA3D
:1024E000AFDAEFFEADD9EDFF22E4900021F0A3F0CA
:1024F000A3F0A3F0A3F0A3F0A3F0A3F0228F107F2A
:102500001112267FAD10EEFC7F111222CC7F01222A
:102510001219A430900790001A7401F022E4900080
:102520001AF02290FFE1E04401F0D2A8D288D2AAAA
:10253000D28A75AC3822900018E0B401047401F01E
:1025400022900018E014F022900017E060047D0152
:102550008002E4FD7F1012262B2290001CE0600414
:10256000E4FD80027D017F8012262B22E4FDFCC366
:10257000ED9FEC9E50070DBD00010C80F222E5643A
:10258000D394004008D56405E4FF1222D7229000BE
:1025900016E004F0E0D3943240037401F02290007E
:1025A00018E004F0E0D3940940037409F022C2ABB0
:1025B000C28E758D05758B05D2ABD28E22C2ABC291
:1025C0008E758DFD758BFDD28E0217DC90FFAEE00F
:1025D000FEEF4D4B4410FFEE4FF022E566D3940022
:1025E0004006D566031224A8227F2512267FEE7F9F
:1025F0000020E6027F0122E59154FCFF43070375AA
:1026000092378F9122121BD3122464E4F5D275D62F
:10261000192253A67F1223B475923743870222C230
:10262000A1E490002CF090002EF022ED6004EF4227
:102630006F22EFF4526F22F0122642D2EB122642A2
:10264000D2EA22E4F5DEF5DF75DE5375DFAC228FCA
:1026500069EF9030B093F56E227F06786AE4F60851
:10266000DFFC22E4F55CF55DF559F55A229000296E
:10267000EEF0A3EFF02212193F121EF7021DD3ADA8
:10268000077F6B121C2422C2DB53D8382202291187
:10269000E86480F8E933E83360110460F0ED33EC6E
:1026A000337009E8FCE9FDEAFEEBFF220460DED3AB
:1026B000EB9FEA9EE99DE8C2E78CF0C2F795F040F7
:1026C0000CE8CCF8E9CDF9EACEFAEBCFFB1228DC26
:1026D00085D0F05804700320D5B3E8047007500289
:1026E000B2D502291B92D5EC0460F7E4CCC0E0C35C
:1026F00098F8603B94186008400DD0E0FB0228F386
:10270000E4FBFAC9FC8028E830E406E4C9FBE4CA2B
:10271000FCE830E305E4C9CACBFCE854076010F8D4
:10272000C3E913F9EA13FAEB13FBEC13FCD8F1300D
:10273000F52FC3E49CFCEF9BFFEE9AFEED99FDD0D4
:10274000E0FBEF4E4D4C701222DB03022918EC2CFB
:10275000FCEF33FFEE33FEED33FDED30E7EB022807
:10276000F3EF2BFFEE3AFEED39FDD0E0FB50130BFB
:10277000BB000302291BED13FDEE13FEEF13FFEC6C
:1027800013FC0228F302291BEC5D046005E85904E0
:1027900070030229111228DC580460F6EC4860F23C
:1027A000EC7004FDFEFF22C860DB2481C85009C321
:1027B00098600250060229189850CAF582E9294B00
:1027C0004A7005AB8202290775F0007C1A7880C335
:1027D000EF9BEE9AED99400DC3EF9BFFEE9AFEED55
:1027E00099FDE842F0DC23ACF0D0E0FFD0E0FED071
:1027F000E0FDAB8220E7101BEB60BAEC2CFCEF3362
:10280000FFEE33FEED33FD0228F3E803F830E70571
:10281000C0F075F000EF2FFFEE33FEED33FD40B852
:1028200030E7C280AA74F8CC6480CCC86480C8F554
:102830008204604FC3EB9FF5F0EA9E42F0E99D42AF
:10284000F0E89C45F0603C501DE5825FFFE582D3D7
:1028500013CB5BCBF42B5582FB50280ABA0024091A
:10286000B9002008801DE5825BFBE582D313CF5FB2
:10287000CFF4C3132F5582FF50090EBE00050DBDC6
:1028800000010CC3EB9FF5F0EA9E42F0E99D42F097
:10289000E89C45F06007CC4820E701B3EC2275F0D6
:1028A00020800E75F010800575F0087D007E007F99
:1028B000003392D530D503122B42EC334010EF3366
:1028C000FFEE33FEED33FDEC33FCD5F0ED22E5F009
:1028D000247EA2D513CC92E7CDCEFF22E9D2E7C960
:1028E00033E833F892D5EDD2E7CD33EC33FC500228
:1028F000B2D522EC30E7100FBF000C0EBE00080D61
:10290000BD00040BEB6014A2D5EB13FCED92E7FDC8
:102910002274FFFCFDFEFF22E480F8A2D574FF13B1
:10292000FC7D80E480EFBB010689828A83F022501F
:1029300002F722BBFE01F322BC000BBE0029EF8D83
:10294000F084FFADF022E4CCF875F008EF2FFFEE35
:1029500033FEEC33FCEE9DEC984005FCEE9DFE0F43
:10296000D5F0E9E4CEFD22EDF8F5F0EE8420D21C9E
:10297000FEADF075F008EF2FFFED33FD40079850E6
:1029800006D5F0F222C398FD0FD5F0EA22C5F0F883
:10299000A3E028F0C5F0F8E582158270021583E007
:1029A00038F022BB010A89828A83E0F5F0A3E02295
:1029B000500687F009E71922BBFE07E3F5F009E3AB
:1029C000192289828A83E493F5F074019322BB0172
:1029D00010E58229F582E5833AF583E0F5F0A3E07E
:1029E000225009E92582F886F008E622BBFE0AE9B2
:1029F0002582F8E2F5F008E222E5832AF583E993DF
:102A0000F5F0A3E99322BB010A89828A83F0E5F0FD
:102A1000A3F0225006F709A7F01922BBFE06F3E542
:102A2000F009F31922E88FF0A4CC8BF0A42CFCE978
:102A30008EF0A42CFC8AF0EDA42CFCEA8EF0A4CD40
:102A4000A8F08BF0A42DCC3825F0FDE98FF0A42C54
:102A5000CD35F0FCEB8EF0A4FEA9F0EB8FF0A4CF07
:102A6000C5F02ECD39FEE43CFCEAA42DCE35F0FDB8
:102A7000E43CFC2275F008758200EF2FFFEE33FE78
:102A8000CD33CDCC33CCC58233C5829BED9AEC9946
:102A9000E58298400CF582EE9BFEED9AFDEC99FCE8
:102AA0000FD5F0D6E4CEFBE4CDFAE4CCF9A882222F
:102AB000B800C1B90059BA002DEC8BF084CFCECD4F
:102AC000FCE5F0CBF97818EF2FFFEE33FEED33FD88
:102AD000EC33FCEB33FB10D703994004EB99FB0F6D
:102AE000D8E5E4F9FA227818EF2FFFEE33FEED3344
:102AF000FDEC33FCC933C910D7059BE99A4007ECBC
:102B00009BFCE99AF90FD8E0E4C9FAE4CCFB227502
:102B1000F010EF2FFFEE33FEED33FDCC33CCC83396
:102B2000C810D7079BEC9AE899400AED9BFDEC9AF8
:102B3000FCE899F80FD5F0DAE4CDFBE4CCFAE4C870
:102B4000F922C3E49FFFE49EFEE49DFDE49CFC2289
:102B5000EB9FF5F0EA9E42F0E99D42F0E89C45F0DB
:102B600022E8600FECC313FCED13FDEE13FEEF1330
:102B7000FFD8F122E86010ECA2E713FCED13FDEEA4
:102B800013FEEF13FFD8F022E8600FEFC333FFEE20
:102B900033FEED33FDEC33FCD8F122BB0107898213
:102BA0008A83022C095005E9F8022BFDBBFE05E9DA
:102BB000F8022C1522E493FC740193FD740293FE39
:102BC000740393FF22A42582F582E5F03583F58313
:102BD00022D083D082F8E4937012740193700DA315
:102BE000A393F8740193F5828883E4737402936865
:102BF00060EFA3A3A380DF8A838982E473ECF608E5
:102C0000EDF608EEF608EFF622ECF0A3EDF0A3EEF9
:102C1000F0A3EFF022ECF208EDF208EEF208EFF28A
:102C200022787FE4F6D8FD758177022C68021D8F2B
:102C3000E493A3F8E493A34003F68001F208DFF4E1
:102C40008029E493A3F85407240CC8C333C4540F59
:102C50004420C8834004F456800146F6DFE4800B2C
:102C60000102040810204080902CF1E47E01936062
:102C7000BCA3FF543F30E509541FFEE493A3600159
:102C80000ECF54C025E060A840B8E493A3FAE493C3
:102C9000A3F8E493A3C8C582C8CAC583CAF0A3C871
:102CA000C582C8CAC583CADFE9DEE780BEC2D5E8EF
:102CB00030E70FB2D5E4C39BFBE49AFAE499F9E458
:102CC00098F8EC30E717B2D5122CE3122AB0E4C31F
:102CD0009BFBE49AFAE499F9E498F88003122AB08D
:102CE00030D50DE4C39FFFE49EFEE49DFDE49CFC13
:102CF00022066A0000000000000169000273000162
:102D000041000100460002FF212BFF165D41003506
:102D100000480021000000000000000041003200D7
:102D2000410033000171004100340001770000EEE2
:102D300030E707C3E49FFFE49EFE22000B24BC00A3
:102D40000B25E8000B2714000B2840000B296C0012
:102D50000B2A98000B2BC4000B2CF0000B2E1C0030
:102D60000B2F48000B3074000B31A0000B32CC004D
:102D70000B33F8000B3524000B3650000B377C006A
:102D80000B38A8000B39D4000B3B00000B3C2C0087
:102D90000B3D58000B3E84000B3FB0000B40DC00A5
:102DA0000B4208000B4334000B4460000B458C00C1
:102DB0000B46B8000B47E4000B4910000B4A3C00DF
:102DC0000B4B68000B4C94000B4DC0000B4EEC00FD
:102DD0000B5018000B5144000B5270000B539C0019
:102DE0000B54C8000B55F4000B5720000B584C0037
:102DF0000B5978000B5AA4000B5BD0000B5CFC0055
:102E00000B5E28000B5F54000B6080000B61AC0070
:102E10000B62D8000B6404000B6530000B665C008D
:102E20000B6788000B68B4000B69E0000B6B0C00AB
:102E30000B6C38000B6D64000B6E90000B6FBC00C8
:102E40000B70E8000B7214000B7340000B746C00E5
:102E50000B7598000B76C4000B77F0000B791C0003
:102E60000B7A48000B7B74000B7CA0000B7DCC0020
:102E70000B7EF8000B8024000B8150000B827C003D
:102E80000B83A8000B84D4000B8600000B872C005A
:102E90000B8858000B8984000B8AB0000B8BDC0078
:102EA0000B8D08000B8E34000B8F60000B908C0094
:102EB0000B91B8000B92E4000B9410000B953C00B2
:102EC0000B9668000B9794000B98C0000C0DF00057
:102ED0000C0CC4000C0B98000C0A6C000C09400090
:102EE0000C0814000C06E8000C05BC000C04900053
:102EF0000C0364000C0238000C010C000BFFE00016
:102F00000BFEB4000BFD88000BFC5C000BFB3000DB
:102F10000BFA04000BF8D8000BF7AC000BF680009E
:102F20000BF554000BF428000BF2FC000BF1D00061
:102F30000BF0A4000BEF78000BEE4C000BED200023
:102F40000BEBF4000BEAC8000BE99C000BE87000E7
:102F50000BE744000BE618000BE4EC000BE3C000A9
:102F60000BE294000BE168000BE03C000BDF10006B
:102F70000BDDE4000BDCB8000BDB8C000BDA60002F
:102F80000BD934000BD808000BD6DC000BD5B000F1
:102F90000BD484000BD358000BD22C000BD10000B3
:102FA0000BCFD4000BCEA8000BCD7C000BCC500077
:102FB0000BCB24000BC9F8000BC8CC000BC7A0003A
:102FC0000BC674000BC548000BC41C000BC2F000FC
:102FD0000BC1C4000BC098000BBF6C000BBE4000BF
:102FE0000BBD14000BBBE8000BBABC000BB9900082
:102FF0000BB864000BB738000BB60C000BB4E00044
:103000000BB3B4000BB288000BB15C000BB0300006
:103010000BAF04000BADD8000BACAC000BAB8000C9
:103020000BAA54000BA928000BA7FC000BA6D0008C
:103030000BA5A4000BA478000BA34C000BA220004E
:103040000BA0F4000B9FC8000B9E9C000B9D700012
:103050000B9C44000B9B18000B99EC06080A0C1003
:1030600014182028304050600000000100020003C6
:103070000101010201030201020202030301030232
:1030800003030C0C0A0B0B0B0B0C0C0C0C0D0E0D94
:103090000CFC60DAF266B6BEE0FEF6EE3E9C7A9E6E
:1030A0008E1A6EE40E1CEC2A3ACEEE7C0200621EF2
:0530B00000F0F8FCFE39
:00000001FF
