:07000000022C2D0222452213
:03000B000218D9FF
:0300130002219C2B
:10001B00021D49EFB42C00400261DD90002C25E05D
:10002B00730184019801AE01C401DA01F02104616E
:10003B00DD211A21302146215C21722188219E610C
:10004B00DD21B421C921DE21F34109411E41334198
:10005B0048415D41724187419C41B141C641DB61E1
:10006B00DD41F06105611B61306145615A61706171
:10007B00DD6186619C61B261C890FFA4E054CF44FE
:10008B0020F0E054F34408F0D2C2C2C12290FFA486
:10009B00E054CF4420F0E5EC54FC4402F5ECD2C222
:1000AB00C28022E5FF543F4480F5FF90FFA4E0544B
:1000BB00CF4420F0D2B7C2C222E5FF54CF4420F583
:1000CB00FF90FFA4E054CF4420F0D2B6C2C22290DE
:1000DB00FFA4E054CF4420F0E5FF543F4480F5FFEC
:1000EB00D2C2C2B72290FFA4E054F34408F0E0540C
:1000FB00CF4420F0D2C1C2C222E5EC54FC4402F53D
:10010B00EC90FFA4E054CF4420F0D280C2C22290E6
:10011B00FFA4E054F34408F0E5EC54FC4402F5EC86
:10012B00D2C1C2802290FFA4E054F34408F0E5FF53
:10013B00543F4480F5FFD2C1C2B722E5FF54CF44F0
:10014B0020F5FF90FFA4E054F34408F0D2B6C2C1EF
:10015B002290FFA4E054F34408F0E5FF54F3440865
:10016B00F5FFD2C1C2B52290FFA4E054F34408F0CE
:10017B00E5FF54CF4420F5FFD2C1C2B622E5EC54C3
:10018B00FC4402F5EC90FFA4E054F34408F0D28059
:10019B00C2C122E5FF543F4480F5FF90FFA4E05419
:1001AB00F34408F0D2B7C2C122E5FF54CF4420F587
:1001BB00FFE5FF543F4480F5FFD2B6C2B722E5EC12
:1001CB0054FC4402F5ECE5FF54CF4420F5FFD280FC
:1001DB00C2B622E5FF543F4480F5FFE5FF54CF4400
:1001EB0020F5FFD2B7C2B622E5FF54F34408F5FF62
:1001FB0090FFA4E054CF4420F0D2B5C2C222E5FF59
:10020B0054F34408F5FFE5EC54FC4402F5ECD2B58D
:10021B00C28022E5FF543F4480F5FFE5EC54FC44DB
:10022B0002F5ECD2B7C28022E5FF54CF4420F5FF94
:10023B00E5EC54FC4402F5ECD2B6C28022E5FF5447
:10024B00FC4402F5FFE5FF54CF4420F5FFD2B4C2C6
:10025B00B622E5FF54FC4402F5FFE5FF54F34408D6
:10026B00F5FFD2B4C2B522E5FF54F34408F5FFE520
:10027B00FF54FC4402F5FFD2B5C2B422E5FF54CFC4
:10028B004420F5FFE5FF54F34408F5FFD2B6C2B5A1
:10029B0022E5FF54F34408F5FFE5FF543F4480F596
:1002AB00FFD2B5C2B722E5FF543F4480F5FFE5FF0F
:1002BB0054F34408F5FFD2B7C2B522E5FF54F3441B
:1002CB0008F5FFE5FF54CF4420F5FFD2B5C2B622A7
:1002DB00E5FF54CF4420F5FFE5FF54FC4402F5FF46
:1002EB00D2B6C2B422E5FF54FC4402F5FFE5EC5450
:1002FB00FC4402F5ECD2B4C2802290FFA4E054CFB0
:10030B004420F0E5FF54F34408F5FFD2C2C2B522F6
:10031B00E5EC54FC4402F5ECE5FF54F34408F5FF1F
:10032B00D280C2B522E5EC54FC4402F5ECE5FF5457
:10033B00FC4402F5FFD280C2B422E5FF543F448057
:10034B00F5FFE5FF54FC4402F5FFD2B7C2B422908F
:10035B00FFA4E054F34408F0E5FF54FC4402F5FF1E
:10036B00D2C1C2B42290FFA4E054CF4420F0E5FFE9
:10037B0054FC4402F5FFD2C2C2B422E5FF54FC4444
:10038B0002F5FF90FFA4E054CF4420F0D2B4C2C2D8
:10039B002290FFA4E054CF4420F0E5FF54CF44203B
:1003AB00F5FFD2C2C2B622E5FF54F34408F5FF9025
:1003BB00FFA4E054F34408F0D2B5C2C122E5FF54C8
:1003CB00FC4402F5FF90FFA4E054F34408F0D2B4D0
:1003DB00C2C1228F2C8E2B8D2A8C298B2D8A2E8994
:1003EB002F854252854151854050853F4F755300B3
:1003FB0075540C7F007EEB7D417C00AB2CAA2BA9A6
:10040B002AA829122CB9E4F553F55474672554F531
:10041B008274303553F583E493FEEFC39E400E0593
:10042B0054E55470020553640C455370DEE55425B6
:10043B00E0FFE55333FE74752FF58274303EF58380
:10044B00E493AB2DAA2EA92F122932E55425E0FFF8
:10045B00E55333FE74742FF58274303EF583E493C9
:10046B00AB30AA31A93212293274672554F5827444
:10047B00303553F583E493FFE4FCFDFEAB2CAA2B44
:10048B00A92AA829122A318F4A8E498D488C47E414
:10049B007F07FEFDFCAB42AA41A940A83F122A31BF
:1004AB00A804A905AA06AB07AF4AAE49AD48AC47AD
:1004BB00122CB9EF2401FFE43EAB33AA34A9358FDC
:1004CB00F0122A12E47F07FEFDFCAB42AA41A940C1
:1004DB00A83F122A31A804A905AA06AB07AF4AAE5A
:1004EB0049AD48AC47122CB9AC00AD01AE02AF031D
:1004FB00C004C005C006C007E47F07FEFDFCAB428D
:10050B00AA41A940A83F122A31A804A905AA06AB03
:10051B0007D007D006D005D004C3EF9BFFEE9AFEA1
:10052B00ED99FDEC98FC780C122B94C004C005C01F
:10053B0006C007E47F07FEFDFCAB42AA41A940A819
:10054B003F122A317804122B80A804A905AA06AB06
:10055B0007D007D006D005D004122CB98F468E4594
:10056B008D448C43E4FFFEE5445403FDE4FC78101A
:10057B00122B6DAB39AA3AA93BEF122932E546FF94
:10058B00E545FEAB36AA37A938EE8FF0122A127565
:10059B005300755401AE53AF54AB07AA06E4F9F8F8
:1005AB00AF42AE41AD40AC3F122CB9A804A905AA8D
:1005BB0006AB07AF2CAE2BAD2AAC29122CB9AE0271
:1005CB00AF03C006C007E55425E0FFE55333AB0787
:1005DB00FAE4F9F8AF42AE41AD40AC3F122CB9C3CF
:1005EB00D0E09FFFD0E09EFE122D3BEE3395E0FD59
:1005FB00FCC004C005C006C007E55425E0FFE55369
:10060B0033AB07FAE4F9F8AF42AE41AD40AC3F1261
:10061B002CB9D003D002D001D000C3EF9BFBEE9AD4
:10062B00FAED99F9EC98F8AE53AF54E4FCFD122AAD
:10063B00318F4E8E4D8D4C8C4BAF52AE51AD50AC6D
:10064B004FAB4EAA4DA94CA84BC3122B5C500C853B
:10065B004E52854D51854C50854B4F0554E554708A
:10066B00020553C39404E55394005002A1A07553A3
:10067B0000755408AE53AF54AB07AA06E4F9F8AFB4
:10068B0042AE41AD40AC3F122CB9A804A905AA0655
:10069B00AB07AF2CAE2BAD2AAC29122CB9AE02AFE7
:1006AB0003C006C007E55425E0FFE55333AB07FA5B
:1006BB00E4F9F8AF42AE41AD40AC3F122CB9C3D018
:1006CB00E09FFFD0E09EFE122D3BEE3395E0FDFC4C
:1006DB00C004C005C006C007E55425E0FFE5533351
:1006EB00AB07FAE4F9F8AF42AE41AD40AC3F122C88
:1006FB00B9D003D002D001D000C3EF9BFBEE9AFA26
:10070B00ED99F9EC98F8AE53AF54E4FCFD122A3195
:10071B008F4E8E4D8D4C8C4BAF52AE51AD50AC4F6E
:10072B00AB4EAA4DA94CA84BC3122B5C500C854E5B
:10073B0052854D51854C50854B4FAB42AA41A94038
:10074B00A83F7F007EE07D2E7C00122CB9AB52AA15
:10075B0051A950A84F122A31AB3CAA3DA93E122BEE
:10076B00A77F012290002CE064086002E1F8900062
:10077B0033E004F0E024FE601824FD601F24FC60CD
:10078B002D24FD604224FD605A240E70607D1C8078
:10079B00027D1BE4FF121E417D1C80097D1BE4FFC3
:1007AB00121E417D1B7F01121E417D1C80107D1B83
:1007BB00E4FF121E417D1B7F01121E417D1B7F0238
:1007CB00121E417D1C80177D1BE4FF121E417D1BF9
:1007DB007F01121E417D1B7F02121E417D1B7F0379
:1007EB00021E41E4900033F07F0612100022122407
:1007FB009E756614228F158E148D138C12E4FF12C6
:10080B0022A17F2D12268B8E1F8F20E51F54F7FC04
:10081B00AD207F2D1222EF7F0A12268B8E1F8F2089
:10082B00AC1FE52054EFFD7F0A1222EF7F3D12260D
:10083B008B8E1F8F20AC1FE52054BFFD7F3D1222F6
:10084B00EF7F3C12268B8E1F8F20AC1FE52054FDB3
:10085B00FD7F3C1222EF75300075310075321E752D
:10086B0033007534007535187536007537007538DB
:10087B001A753900753A00753B1C753C00753D00C7
:10088B00753E23E47542C075415DF540F53FFB7A3B
:10089B0000791DAF15AE14AD13AC121203DEE51DBE
:1008AB00FCE51925E025E04CFCE4E51E75F040A4C1
:1008BB00FFEC45F0FEEEFCEF451CFD7F081222EF2E
:1008CB00AC1AE51B4401FD7F091222EF7F0E1226A5
:1008DB008B8E1F8F20AC1FE5204480FD7F0E1222D4
:1008EB00EF7F0E12268B8E1F8F20E51F4401FCAD70
:1008FB00207F0E1222EF7F027E0012240C7F0E123D
:10090B00268B8E1F8F20E51F54FEFCAD207F0E1211
:10091B0022EF1222DD7F0D12268B8E1F8F20E51FFB
:10092B005408131313541FF520751F00751601750A
:10093B00172CE520451F702D7F0AFE12240C7F0D0E
:10094B0012268B8E1F8F20E51F5408131313541F71
:10095B00F520751F00E517151770021516E51745DD
:10096B001670CFFF227F2E12268B8E1F8F20E51F36
:10097B00541CF5277528001313543FF528752700D1
:10098B00C39403E52794004008752700752807805A
:10099B0012E52825E0FFE52733FEEF2403F528E4D5
:1009AB003EF527E52825E025E0FEE51F54E3AD20C5
:1009BB004EF51FEDF5207F2D12268B8E218F22E514
:1009CB00214408FCAD227F2D1222EFAD20AC1F7FFE
:1009DB002E1222EF7F2A12268B8E1F8F20E520549A
:1009EB007EFFE4C313F527EF13F5287F3D12268B0B
:1009FB008E1F8F20AE1FE52054804440FFE5274E0D
:100A0B00FCE5284FFD7F3D1222EF7F0A12268B8ECD
:100A1B001F8F20AC1FE5204410FD7F0A1222EF7FB1
:100A2B003C12268B8E1F8F20AC1FE5204402FD7FCE
:100A3B003C1222EF1222DD7F0D12268B8E1F8F2090
:100A4B00E51F5408131313541FF520751F0075165B
:100A5B000175172CE520451F702E7F0D12268B8EEE
:100A6B001F8F20E51F5408131313541FF520751FF8
:100A7B00007F0A7E0012240CE5171517700215165D
:100A8B00E517451670CEFF227F0A7E0012240C124A
:100A9B0022BF7F0122E565600BE4F5657564027F7B
:100AAB00011222FAE56114B41100400281B2900ADE
:100ABB00C325E0500205837381A141E76132614296
:100ACB006160616C619A61CA61E8810A8138815EFB
:100ADB00818281A181A181A381A181AFE4F5619084
:100AEB00002CE0FF64026009EF64016004EFB40BBB
:100AFB000A90002EE0700404F0801090002CE0B4FB
:100B0B00030990002FE4F0A3740CF090002CE0B4D8
:100B1B000207E4900031F0800A90002CE0640E6034
:100B2B000281B27F0E819E90002CE06006640D6006
:100B3B000281B27F01819E90002CE06402600281F1
:100B4B00B290002EE0700281B2E4F0A3F0A3740C1B
:100B5B00F07F03819E90002CE0600281B27F0B81BD
:100B6B009E90002CE0B40405757204800D90002C4F
:100B7B00E0B4050A75720412259A7F05800C90006B
:100B8B002CE0B40A081225AA7F0A12100081AFE4E8
:100B9B00F56190002CE0FF640470028148EFB4050E
:100BAB00028148EF6402600281B290002EE0640182
:100BBB00600281B27D017F201226377F0A819EE47D
:100BCB00F56190002CE0B402087572047F041210DA
:100BDB000090002CE06405600281B28178E4F5613D
:100BEB0090002CE06405600281B290001BE0700263
:100BFB0081B275720412266F12259A7F05819E9021
:100C0B00002CE0B40405757204800D90002CE0B448
:100C1B00050A757204121FEE7F05800C90002CE004
:100C2B00B40A081225427F0A1210008077E4F5619E
:100C3B0090002CE0FF64046004EFB40506E4900020
:100C4B001BF022EF6402705F7D017F201226377F3D
:100C5B000A8040E4F56190002CE0B4020875720440
:100C6B007F0412100090002CE06405703A12266F7E
:100C7B0090001B7401F022E4F56190002CE06405F8
:100C8B00702590001BE0601F75720412266F121FF7
:100C9B00EE7F05021000800C90002CE0B402057F63
:100CAB0007121000E4F5612290002CE0FF64037042
:100CBB0002C139EF64017002C139308102A189127E
:100CCB0024E08E0C8F0DAC0CAD0DE41228AF7B3DE8
:100CDB007A0A790378411227948F0B8E0A8D098C2F
:100CEB0008E4FBFA79A078C11226A08F0B8E0A8D2F
:100CFB00098C08E4FFFE7DBE7C43AB0BAA0AA90955
:100D0B00A80812283160044002A1C7E4FFFE7DB49D
:100D1B007C43AB0BAA0AA909A8081228316004402E
:100D2B0002A1E8E4FFFE7DAA7C43AB0BAA0AA9094A
:100D3B00A80812283160044002C10DE4FFFE7DA01B
:100D4B007C43AB0BAA0AA909A808122831600F40F3
:100D5B000D6370FFE5706002C130E4FFC136E4FF44
:100D6B00FEFDFCAB0BAA0AA909A8081228316002E8
:100D7B005002C139E4FF12265B7F03021000208171
:100D8B0002C1391224E08E0C8F0DAC0CAD0DE412A8
:100D9B0028AF7B487AE1790278411227948F0B8E2A
:100DAB000A8D098C087F007E807DCE7C43AB0BAA1D
:100DBB000AA909A808122831600640047F04806B39
:100DCB00E4FFFE7DC37C43AB0BAA0AA909A808125A
:100DDB0028316011400F6370FFE57060047F038062
:100DEB004A7F048046E4FFFE7DB97C43AB0BAA0A25
:100DFB00A909A8081228316011400F6370FFE57034
:100E0B0060047F0280257F038021E4FFFEFDFCABA5
:100E1B000BAA0AA909A808122831601240106370A6
:100E2B00FFE57060047F0180027F0212265B228F38
:100E3B000F8E0E8D0D8C0C7F0312268BEE547FFCC8
:100E4B00AD077F031222EF7F327E0012240C7F034B
:100E5B0012268BEF54FEAC064401FD7F031222EFEA
:100E6B007F2412268BEE54EF4410FCAD077F241227
:100E7B0022EF7F4712268BEE4402FCAD077F471211
:100E8B0022EF7F0A12268BEE4402FCAD077F0A127B
:100E9B0022EF7F1C12268BEE54F1FEEF54E1AC06D1
:100EAB004402FD7F1C1222EF7F1E12268BEF54DFB4
:100EBB00AC064420FD7F1E1222EF7F3012268BEEF4
:100ECB005480441AFC7439FD7F301222EF7F3112AB
:100EDB00268BAC0674EBFD7F311222EF7F39122685
:100EEB008BEE54FC4403FC74A8FD7F391222EF7D7A
:100EFB00367C777F3A1222EF7F2512268BEE54C079
:100F0B004403FC7422FD7F251222EF7F2612268BD1
:100F1B00AC06EF54FBFD7F261222EF7F1F12268BB0
:100F2B00EE5480FEEF54F0FFEE4476FCEF4401FDEF
:100F3B007F1F1222EF7D127C137F201222EF7D1474
:100F4B007C177F211222EF7F1012268BAC06EF4409
:100F5B0010FD7F101222EF7F4512268BEF54F0AC61
:100F6B00064407FD7F451222EF7F2D12268BEF548F
:100F7B00F8AC064403FD7F2D1222EF7F0112228372
:100F8B00AF0FAE0EAD0DAC0C120800EF60177F2A41
:100F9B001225097F011220DB7F02121F8F7F0112A6
:100FAB0021037F01227F00228B0E8A0F89101229C9
:100FBB00AFFDACF07F121222EFAB0EAA0FA910906F
:100FCB0000021229DAFDACF07F131222EFAB0EAA4E
:100FDB000FA9109000041229DAFDACF07F14122235
:100FEB00EFAB0EAA0FA9109000061229DAFDACF098
:100FFB007F170222EF90002CEFF024FEB40D00407F
:10100B0002210E90101825E0500205837301330165
:10101B004301550162016E0183210E01B301B6013B
:10102B00C401F3210E210422D2A07F011214551208
:10103B0025661225540218007F011222FAE4FF12D2
:10104B00210312266512231621071224577F021241
:10105B00145512233280081218007F021214557F88
:10106B00E880417F2A122509121E9212202E121F90
:10107B002D12234E7F7821097F011220DB7F0B126B
:10108B002509900017E06004E4F08008900019E057
:10109B00900017F012255412236A1224577F031263
:1010AB0014557F207E03805802236A1217E07F01BC
:1010BB001214557F907E01804790002FE4F0A374AB
:1010CB0005F0E4FF1222FA7F011220DB90001CE0F6
:1010DB006004E4F0800690001C7401F01225661287
:1010EB001E4E7F907E01801812222690001FE0FF7B
:1010FB001200067F907E0180071223F27FC87E00CC
:10110B0012267922E4FFEF75F003A42455F8E65478
:10111B00FEF60FBF04F020C8034355012093034391
:10112B005801209203435B01209103435E01E4FFCE
:10113B00EF75F003A42455F8E6FE1313135401FDC9
:10114B00EE5401FE6D5E540125E0FEEF75F003A435
:10115B002455F8E654FD4EF6E6FEC3135401FDEE9E
:10116B0054016DFEEF75F003A42455F8E6FD13133F
:10117B001354016E540125E025E0FEEF75F003A436
:10118B002455F8ED54FB4EF6E6FE5401333333543D
:10119B00F8FDEF75F003A42455F8EE54F74DF6E681
:1011AB00FE131313541F20E00CEF75F003A4245609
:1011BB00F8E4F608F60FEF64046002213BE55520D6
:1011CB00E016E55820E011E55B20E00CE55E20E041
:1011DB0007E4F562F56380061207F97565011224C1
:1011EB003FE56370091221E412220512151122D377
:1011FB0090002AE09400900029E0940040069000B3
:10120B002B7401F090002BE0700241CF900029E08D
:10121B007002A3E0600241CF90002BF0A3E024FD0D
:10122B00B40C00400241CF90123C25E050020583E4
:10123B0073415541794183418F418341CF41CF4127
:10124B009C41B141B541CF41C322C2A0E4FF122062
:10125B00DB122665121D033081107F0D121000E585
:10126B00EE54CF4420F5EEC2A222E4FF8053121EAF
:10127B009212202E7F0880491207F97F0412145511
:10128B007F08803D1225661225541218007F0280BC
:10129B0030900018E0FD7F03122426E4FD7F20121E
:1012AB0026377F02801B7F08801790001FE0FD7F91
:1012BB00071224267F028009E4FD7F201226377F48
:1012CB00021210002290002CE064016002619390E6
:1012DB000032E004F0E024F6603A24FE604F24FE76
:1012EB00606424FE607924FE700261862411600222
:1012FB006193122264D2A1121C731223867F701287
:10130B0021517D1AE4FF121E417D117F01121E41F6
:10131B007D0F805B7D1CE4FF121E417D1C7F011243
:10132B001E417D1C7F02121E417D1180497D1CE4F4
:10133B00FF121E417D1C7F01121E417D117F021287
:10134B001E41E4FD80307D1CE4FF121E417D117FA8
:10135B0001121E41E4FD7F02121E417D0180177DAB
:10136B0011E4FF121E41E4FD7F01121E417D017F3E
:10137B0002121E417D1C7F03021E41E4900032F0DD
:10138B0012176E7F0212100022AB07AA06E4F50CAF
:10139B00D3EB940FEA942740047A277B0FAE02AF6E
:1013AB0003EF4E600B050C7C007D0A12294480F183
:1013BB00E50C14602314603E14605514606624041D
:1013CB00600281547D1CE4FF121E410F121E410F5F
:1013DB00121E41E4FD0F806E7D1CE4FF121E410FB7
:1013EB00121E410F121E417C007D0AAF03AE02128A
:1013FB0029447F0380507D1CE4FF121E410F121EF7
:10140B002A7C007D0AAF03AE021229447F0380368B
:10141B007D1C121E117C007D0AAF03AE0212294403
:10142B007F0380227C037DE8AF03AE021229447C4C
:10143B00007D0A122944121E11AE02AF037C007DFF
:10144B000A1229447F03121E41221224F5EFC454C1
:10145B00F0FE900021E04EF0A3E0F090001AE09037
:10146B0000216005E044038003E04402F0A3E0F0B8
:10147B00900018E0FF900021E0121E8DE47B64FACF
:10148B00F9F8122ABC7808122B6D7808122B9412DB
:10149B001E88E47B64FAF9F8122ABC7808122B6DCB
:1014AB00C374FF9FFFE49EFE121E88E47B64FAF96F
:1014BB00F8122ABC7808122B94900025121E8BE48C
:1014CB007B64FAF9F8122ABCC374FF9FFFE4940003
:1014DB00FE900025E04EF0A3E04FF0900017E0FDEA
:1014EB00FE900027E04EF0A3E0F0C374FF9DFFE4F5
:1014FB009400FE900027E04EF0A3E04FF07B017AC2
:10150B00007921020FB3E55530E336C3E55794F468
:10151B00E556940150080557E55770020556E557F7
:10152B00641045567003756103E557643245567078
:10153B0003756104E557B45E08E556B401037561A4
:10154B0005E55830E329C3E55A94F4E55994015065
:10155B0008055AE55A70020559E55A641945597040
:10156B0003756108E55A640445597003756109E513
:10157B005B30E329C3E55D94F4E55C940150080509
:10158B005DE55D7002055CE55D6419455C70037596
:10159B00610CE55D6404455C700375610DE55E30BF
:1015AB00E31EC3E56094F4E55F940150080560E524
:1015BB00607002055FE5606432455F700375611012
:1015CB0022E57260021572E5726002C1606371FF01
:1015DB0090002CE064047025E571600512233280C5
:1015EB001C7D1CE4FF121E417D1C7F01121E417DE0
:1015FB001C7F02121E417D1C7F03121E4190002C8A
:10160B00E064057025E5716005121800801C7D1CD7
:10161B00E4FF121E417D1C7F01121E417D1C7F02C7
:10162B00121E417D1C7F03121E4190002CE06407AB
:10163B007023E571600302236A7D1CE4FF121E41D7
:10164B007D1C7F01121E417D1C7F02121E417D1CE1
:10165B007F03121E4122900001E004F0E0C39403CB
:10166B004005E4F01215CC1212D012076F121B7B3F
:10167B00900019E004F0E0B4FE037401F090002038
:10168B00E06037E4F090002CE0702A7F0D12100020
:10169B00122264D2A1121C731223867F7012215165
:1016AB0090002FE4F0A37405F0E5EE54CF4420F541
:1016BB00EEC2A280057F0312100090002CE0B40D47
:1016CB001B208118E5EE54CF4420F5EED2A29000FA
:1016DB002FE4F0A37405F0E4FF12100022EF122B9D
:1016EB00DD171410171920171E3017234017285019
:1016FB00172D60173670173F801748901751A0179A
:10170B005AB01763D00000176690FFC1802090FF7E
:10171B00C1802490FFC1802890FFC1802C90FFC115
:10172B00803090FFC1E04420F0803090FFC3E04454
:10173B0001F0802790FFC3E04402F0801E90FFC3AE
:10174B00E04404F0801590FFC3E04408F0800C9057
:10175B00FFC3E04410F0800343A640E5D8540F4F7D
:10176B00F5D82212251CE5EE54CF4420F5EED2A27B
:10177B00750B80750A387509017508007F011226F3
:10178B008BEF64547003EE644B602BE50B24FFF579
:10179B000BE50A34FFF50AE50934FFF509E50834D2
:1017AB00FFF508AF0BAE0AAD09FC4D4E4F70CD7F68
:1017BB00B87E22121394121E92120E3AE4FF1220DC
:1017CB005C7F0112205C7F081220B2E4FF1222FA28
:1017DB007F010214557D1AE4FF121E417D1B7F0110
:1017EB00121E41E4FD7F02121E41900018E0FD7FA6
:0417FB0003021E4186
:1018000090001AE06035900016E02432F50E7D0B52
:10181000E4FF121E41E50EB464047D1D80027D1BB1
:101820007F01121E41E50E75F06484E5F075F00A43
:1018300084FD7F02121E41E50E80267D0AE4FF1220
:101840001E417D1B7F01121E41900016E075F06461
:1018500084E5F075F00A84FD7F02121E41900016A7
:10186000E075F00A84ADF07F03121E4122D3900090
:101870001EE0940A90001DE09400405C90002CE073
:101880006402705490001CE0604E900034E004F05C
:10189000E0B4011C7D1CE4FF121E41E4FD7F011237
:1018A0001E41E4FD7F02121E417D1C7F03021E418A
:1018B000900034E0B402217D1CE4FF121E417D1C27
:1018C0007F01121E417D1C7F02121E417D1C7F0381
:1018D000121E41E4900034F022C0E0C0F0C083C08A
:1018E00082C0D075D000C000C001C002C003C004D7
:1018F000C005C006C0070577E577B4040675770014
:1019000012110FD390002AE09400900029E0940077
:10191000400CA3E024FFF0900029E034FFF0121EF9
:10192000F712264FD007D006D005D004D003D0023E
:10193000D001D000D0D0D082D083D0F0D0E032E43B
:10194000F508F508E50825E025E02408F582E434EB
:1019500000F583E0FEA3E04E7040E50825E025E0B9
:10196000240AF582E43400F583E0FEA3E0FFE508F5
:1019700025E025E02408F582E43400F583EEF0A3A9
:10198000EFF0E50875F003A42402F582E43400F5D5
:1019900083A3E0FAA3E0F9122C030508E508C39439
:1019A0000240A1221224CAEF60337F0212248790E2
:1019B0000016EFF07F03122487900018EFF07F04E9
:1019C000122487900017EFF07F0512248790001CE7
:1019D000EFF07F0712248790001FEFF0229000168F
:1019E0007401F09000187408F0E4900017F0900073
:1019F0001C04F0E490001FF07D12FF1224267D12DB
:101A00007F01122426121F2D2290FFA4E054CFF054
:101A1000E054F3F053ECFC53FF3F53FFCF53FFF37D
:101A200053FFFC0567E567D39407400FE4F56705AE
:101A300068E568D394054003E4F568746A2568F89E
:101A4000E6FD7C0074807E00A867088006CEA2E7D1
:101A500013CE13D8F8FFEE5CFEEF5D4E600CE56828
:101A600075F008A42567FF12001E2290001CE0609C
:101A70000E90001EE004F0700690001DE004F0904F
:101A8000001DE07004A3E0640A700C90002CE0B428
:101A900002057F010222FA90001DE0B40111A3E0CB
:101AA000B42C0C90002CE0B40205E4FF0220DB9083
:101AB000001DE0B40311A3E0B4840C90002CE0B44A
:101AC00002057F03121000228D11751201EF24F020
:101AD000F51325E0FFF5D3E513C41313135401FEEA
:101AE000F5D275D10BADD5ED651160338FD38ED2A4
:101AF0008511D51225BA75D7A575D7F175D10912FB
:101B000025C9E51325E0F5D3E513C41313135401D8
:101B1000F5D275D10BADD5ED65116003E4F512AFCB
:101B200012228D2AEF75F003842434F52BEF75F023
:101B30000384C3740295F075F005A4F52CAF2B1245
:101B4000268BAD07AC06741F7E00A82C088005C349
:101B500033CE33CED8F9F4FFEEF45CFCEF5DFD7EBE
:101B600000E52AA82C088005C333CE33CED8F9FF70
:101B7000EE4CFCEF4DFDAF2B0222EF90001CE0601D
:101B8000511225F5EF603C90002CE064027034D3D4
:101B900090001EE0942C90001DE09401400CE4FFA6
:101BA0001222FA7F011220DB8014D390001EE094F1
:101BB0000A90001DE094004012E4FF1222FA12186D
:101BC00000800890002CE064026007E490001DF0A3
:101BD000A3F02290FFD574FFF0F5FCF5ECE4F5805E
:101BE000A374FFF0F5FDF5EDE4F590A374FFF0F5B7
:101BF000FEF5EEE4F5A0A374FFF0F5FFF5EFE4F5D4
:101C0000B090FFE574FFF090FFB4F090FFA4F0E413
:101C1000F5C090FFE774FFF090FFB9F090FFA9F0D6
:101C2000E4F5E822AC07A905E4FBFA1223A1EC12C3
:101C30001FBFEF6036AF01122088121FC5EF602B67
:101C40001223A1EC4401121FC1EF601F121F5FEFAE
:101C5000FA12264EC2EB122649C2EA12264ED2EBE7
:101C600012264E121F5FEFFB12264E1223BCAE024D
:101C7000AF0322E4FFEF75F003A42455F8E654FE09
:101C8000F654FDF654FBF654F7F6EF75F003A42472
:101C900056F8E4F608F60FBF04DB90FFA5E054FC0D
:101CA0004401F0E5ED54F34404F5EDE5ED54CF4483
:101CB00010F5EDE5ED543F4440F5ED22121BD37FC6
:101CC000647E0012240CE5ED54F34404F5EDE5EDDB
:101CD00054CF4410F5EDE5ED543F4440F5ED1226A8
:101CE0009353EFFC121D03E5EE54CF4420F5EED2E2
:101CF000A2C2A2E5EE54F34408F5EEC2A153ECF300
:101D000002261E90FFA4E054CF4420F0E054F34498
:101D100008F0E5EC54FC4402F5ECE5FF543F448048
:101D2000F5FFE5FF54CF4420F5FFE5FF54F34408E9
:101D3000F5FFE5FF54FC4402F5FFC2C2C2C1C280F8
:101D4000C2B7C2B6C2B5C2B422C0E0C0F0C083C040
:101D500082C0D075D000C000C001C002C003C00462
:101D6000C005C006C00790002CE06005121A09806B
:101D700003121D03D007D006D005D004D003D00233
:101D8000D001D000D0D0D082D083D0F0D0E0327556
:101D9000A68512264F12246F1226111226821226B1
:101DA0002B122386121C737F70122151E5EE54CF43
:101DB0004420F5EED2A290002FE4F0A37405F012B7
:101DC00021771221C112252F12193F1211FA120A7E
:101DD000A080F5E4FF90000AF0A37464F090000E78
:101DE000E4F0A37414F0EF25E025E0240AF582E482
:101DF0003400F583E0FCA3E0FDEF25E025E02408B6
:101E0000F582E43400F583ECF0A3EDF00FBF02D6C9
:101E100022E4FF121E417C007D64AF03AE02122952
:101E2000447C007D0A1229447F01121E417C007D02
:101E30000AAF03AE021229447C007D0A1229447FB6
:101E400002ED90309D93FE746A2FF8A60622900052
:101E50001CE07D0A6017E4FF121E41E4FD7F0112C1
:101E60001E417D167F02121E417D1C8015E4FF126B
:101E70001E41E4FD7F01121E417D0F7F02121E41B3
:101E80007D0F7F03121E4122900023E04EF0A3E05D
:101E90004FF090001AE0FF75F090A42443F582E51E
:101EA000F0342DF583EF2583F583C083C082900045
:101EB00016E0D082D08375F004122BD1122BC122F0
:101EC000A907AC058B2DAF02AB071223A1E9121FA6
:101ED000BFEF601EAF04122088121FC5EF6013AF62
:101EE00003122088121FC5EF6008AF2D1220881240
:101EF0001FC5C2EA0223BCE4FFEF25E025E0240869
:101F0000F582E43400F583E0FCA3E0D39400EC9484
:101F1000004015EF25E025E02408F582E43400F5C3
:101F20008374FFF5F01229990FBF02CD229000169D
:101F3000E0FD7F02122426900018E0FD7F031224AA
:101F400026900017E0FD7F0412242690001CE0FD7F
:101F50007F0512242690001FE0FD7F07022426E45F
:101F6000FF90FFA9E0543F4440F0E4FEEF25E0FF7E
:101F7000122649A2EBE433420712264EC2EA0EBEF5
:101F800008EA12264E90FFA9E0543F4480F0228FC9
:101F9000107F1F12268BAD07AC06E51075F080A4EC
:101FA000FFEC54FEFCED547FFDE5F04CFCEF4DFDE5
:101FB0007F1F1222EF7F147E0012240C7F01225417
:101FC000FEFF12208890FFA9E0543F4440122643B0
:101FD00012264EA2EBE433FF12264EC2EA12264E20
:101FE000E0543F4480F0EF7F0070027F01229000B8
:101FF00016E0B401047432F022900016E014F022CE
:10200000D3900030E0940090002FE09400401E90A8
:10201000002CE07018900030E024FFF090002FE0DA
:1020200034FFF0E07002A3E07003121CBC228F1199
:102030008E108D0F8C0EE4FF1221037F647E001240
:10204000240CAF11AE10AD0FAC0E1208007F0112C0
:102050002103E4FF12205C7F0102205CEF7F1F6000
:102060000C12268B8E128F13431240800A12268B7D
:102070008E128F135312BFAD13AC127F1F1222EFBB
:102080007F147E0012240C22E4FEFD12264EEF5433
:1020900080FE64806004C2EB8002D2EB12264EEF19
:1020A00025E0FF122649C2EA12264E0DBD08DC02C9
:1020B000264E8F0C7F1C12268BAD07AC06E50C75E7
:1020C000F020A4FFEC54FEFCED541FFDE5F04CFCA9
:1020D000EF4DFD7F1C1222EF7F01228F10851075BE
:1020E0007F0F12268BAD07AC06E51075F008A4FF34
:1020F000ED54F7FDEC45F0FCED4FFD7F0F1222EFA4
:102100007F01228F127F1F12268BAD07AC06E512CE
:10211000C43333335480FEEC547F4EFC7F1F1222B5
:10212000EF7F147E0012240C7F012212186D9000A4
:1021300000E004F0E0C394024005E4F0121A6B9052
:10214000002CE06003120CB312200012258A022535
:10215000E7AC0790FFADE4F075A685FB7D017F60DD
:102160001225D890FF60E04480F0AF041216E8D248
:10217000DB000000D2DA2290FFCAE054F8F0E0441D
:1021800007F05389F0438902C28C758C62758A62AC
:1021900053B8FDD28DD28CD2A9D2AF22C0E0C08379
:1021A000C082E5AC30E11375AC3890002FE4F0A3A9
:1021B0007405F09000207401F000D082D083D0E04C
:1021C0003290FFCAE0548FF0E044F0F05389CF43DF
:1021D0008920C28E758DFD758BFD43B808D28ED2D5
:1021E000ABD2AF22E55530E103756101E55830E12E
:1021F00003756106E55B30E10375610AE55E30E178
:102200000375610E22E55530E203756102E5583031
:10221000E203756107E55B30E20375610BE55E3053
:10222000E20375610F227D0EE4FF121E417D0C7FDB
:1022300001121E417D1B7F02121E4190001FE0FD16
:102240007F03021E41C0E0C083C082E5AC30E00DD8
:1022500075AC3890002FE4F0A37405F000D082D064
:1022600083D0E032E5EE54F34408F5EE53EFFC532F
:10227000ECF3E5ED54FC4401F5EDE5EE54FC4402CD
:10228000F5EE228F107F2412268BAD07AC06E510E9
:10229000C454F0FEEC54EF4EFC7F241222EF7F0179
:1022A000228F2A7F3412268BAD07AC06E52AC43371
:1022B00033335480FEEC547F4EFC7F340222EF7F98
:1022C000011222A1E4F529E52990308E93FDAF2972
:1022D000121B220529E529C3940F40EB227F0A1225
:1022E000268B8E1F8F20AC1FE5204420FD7F0AAB7C
:1022F00005AA04AD077F6A021EC08F0E850E767F89
:102300001C12268BEF54FEFFEEFCEF450EFD7F1CEA
:102310001222EF7F01227D1CE4FF121E41E4FD7FAB
:1023200001121E417D0F7F02121E417D0F7F0302AD
:102330001E417D05E4FF121E417D0E7F01121E41EC
:102340007D147F02121E417D1C7F03021E417D1CF5
:10235000E4FF121E41E4FD7F01121E417D137F0246
:10236000121E417D1C7F03021E417D1CE4FF121ED4
:10237000417D017F01121E417D0D7F02121E417DB4
:102380001C7F03021E4190FFA4E054CFF0E054F301
:10239000F053ECFC53FF3F53FFCF53FFF353FFFCCD
:1023A0002290FFA9E0543F4480F0E054CF44201233
:1023B0002643C2EB12264EC2EA02264E90FFA9E047
:1023C000543F4480F012264EC2EA12264EC2EB124F
:1023D0002649D2EB02264E90FFA2E0FF5307EE43C0
:1023E0000701EFF090FFA0E0FF5307F543070AEF66
:1023F000F022900031E0F4F060071217E07D0180D8
:1024000005121800E4FD7F2012263722EF4E6015DA
:10241000E4FDFC0DBD00010CBC02F8BD59F5EF1F39
:1024200070EA1E80E7228F0E8D0F75100AAD0FAF78
:102430000E121AC8EF7007E510D3940050EF22E592
:102440005530E012E55830E00D7563010562E56234
:10245000B432037561112290001AE060067F187E85
:10246000F280047FF87EEE7D097C0012202E22E5AA
:102470009154FB759237F591E59120E2FB7F0A7E3E
:1024800000122578022603EF24F0FF25E0F5D3EFB4
:10249000C41313135401F5D275D10BAFD52290FF9D
:1024A000D5E04401F090FFD8E044F0F090FFE5E083
:1024B0004406F02290FFD5E054FEF090FFD8E0549F
:1024C0000FF090FFE5E054F9F022E4FF122487BFFB
:1024D000120B7F01122487BF12037F01227F00228B
:1024E000D2DB000000D2DA20DAFDD2DAAFDAEFFE7A
:1024F000ADD9EDFF22E4900021F0A3F0A3F0A3F00A
:10250000A3F0A3F0A3F0A3F0228F107F1112268B6B
:10251000AD10EEFC7F111222EF7F01221219A430C0
:10252000900790001A7401F022E490001AF02290B3
:10253000FFE1E04401F0D2A8D288D2AAD28A75ACD9
:102540003822900018E0B401047401F022900018C1
:10255000E014F022900017E060047D018002E4FDA9
:102560007F101226372290001CE06004E4FD8002F8
:102570007D017F8012263722E4FDFCC3ED9FEC9E97
:1025800050070DBD00010C80F222E564D394004099
:1025900008D56405E4FF1222FA22900016E004F048
:1025A000E0D3943240037401F022900018E004F06C
:1025B000E0D3940940037409F022C2ABC28E758D3A
:1025C00005758B05D2ABD28E22C2ABC28E758DFD46
:1025D000758BFDD28E0221C190FFAEE0FEEF4D4B18
:1025E0004410FFEE4FF022E566D394004006D56616
:1025F000031224B4227F2512268BEE7F0020E602F0
:102600007F0122E59154FCFF4307037592378F91B8
:1026100022121BD3122264E4F5D275D6192253A6D6
:102620007F1223D775923743870222C2A1E490001C
:102630002CF090002EF022ED6004EF426F22EFF4B8
:10264000526F22F012264ED2EB12264ED2EA22E42C
:10265000F5DEF5DF75DE5375DFAC228F69EF903064
:10266000BC93F56E227F06786AE4F608DFFC22E46C
:10267000F55CF55DF559F55A22900029EEF0A3EFCF
:10268000F02212193F121EF7021DD3AD077F6B1205
:102690001C2422C2DB53D8382202291DE86480F8AA
:1026A000E933E83360110460F0ED33EC337009E88E
:1026B000FCE9FDEAFEEBFF220460DED3EB9FEA9E1D
:1026C000E99DE8C2E78CF0C2F795F0400CE8CCF841
:1026D000E9CDF9EACEFAEBCFFB1228E885D0F05825
:1026E00004700320D5B3E80470075002B2D5022964
:1026F0002792D5EC0460F7E4CCC0E0C398F8603BC7
:1027000094186008400DD0E0FB0228FFE4FBFAC9F2
:10271000FC8028E830E406E4C9FBE4CAFCE830E3C6
:1027200005E4C9CACBFCE854076010F8C3E913F903
:10273000EA13FAEB13FBEC13FCD8F130F52FC3E4EA
:102740009CFCEF9BFFEE9AFEED99FDD0E0FBEF4E77
:102750004D4C701222DB03022924EC2CFCEF33FFDA
:10276000EE33FEED33FDED30E7EB0228FFEF2BFFFC
:10277000EE3AFEED39FDD0E0FB50130BBB00030237
:102780002927ED13FDEE13FEEF13FFEC13FC0228D7
:10279000FF022927EC5D046005E859047003022953
:1027A0001D1228E8580460F6EC4860F2EC7004FD55
:1027B000FEFF22C860DB2481C85009C39860025024
:1027C000060229249850CAF582E9294B4A7005ABC4
:1027D0008202291375F0007C1A7880C3EF9BEE9A71
:1027E000ED99400DC3EF9BFFEE9AFEED99FDE84297
:1027F000F0DC23ACF0D0E0FFD0E0FED0E0FDAB8217
:1028000020E7101BEB60BAEC2CFCEF33FFEE33FE3D
:10281000ED33FD0228FFE803F830E705C0F075F05E
:1028200000EF2FFFEE33FEED33FD40B830E7C280FE
:10283000AA74F8CC6480CCC86480C8F58204604F68
:10284000C3EB9FF5F0EA9E42F0E99D42F0E89C451B
:10285000F0603C501DE5825FFFE582D313CB5BCB7C
:10286000F42B5582FB50280ABA002409B90020082D
:10287000801DE5825BFBE582D313CF5FCFF4C313EA
:102880002F5582FF50090EBE00050DBD00010CC37F
:10289000EB9FF5F0EA9E42F0E99D42F0E89C45F09E
:1028A0006007CC4820E701B3EC2275F020800E755C
:1028B000F010800575F0087D007E007F003392D512
:1028C00030D503122B4EEC334010EF33FFEE33FEC6
:1028D000ED33FDEC33FCD5F0ED22E5F0247EA2D5FE
:1028E00013CC92E7CDCEFF22E9D2E7C933E833F823
:1028F00092D5EDD2E7CD33EC33FC5002B2D522ECC9
:1029000030E7100FBF000C0EBE00080DBD00040B19
:10291000EB6014A2D5EB13FCED92E7FD2274FFFCF3
:10292000FDFEFF22E480F8A2D574FF13FC7D80E455
:1029300080EFBB010689828A83F0225002F722BB16
:10294000FE01F322BC000BBE0029EF8DF084FFAD29
:10295000F022E4CCF875F008EF2FFFEE33FEEC33F5
:10296000FCEE9DEC984005FCEE9DFE0FD5F0E9E4F1
:10297000CEFD22EDF8F5F0EE8420D21CFEADF07510
:10298000F008EF2FFFED33FD4007985006D5F0F229
:1029900022C398FD0FD5F0EA22C5F0F8A3E028F095
:1029A000C5F0F8E582158270021583E038F022BB8D
:1029B000010A89828A83E0F5F0A3E022500687F0BD
:1029C00009E71922BBFE07E3F5F009E31922898222
:1029D0008A83E493F5F074019322BB0110E5822908
:1029E000F582E5833AF583E0F5F0A3E0225009E9AA
:1029F0002582F886F008E622BBFE0AE92582F8E285
:102A0000F5F008E222E5832AF583E993F5F0A3E9DE
:102A10009322BB010A89828A83F0E5F0A3F0225059
:102A200006F709A7F01922BBFE06F3E5F009F31932
:102A300022E88FF0A4CC8BF0A42CFCE98EF0A42C1F
:102A4000FC8AF0EDA42CFCEA8EF0A4CDA8F08BF06B
:102A5000A42DCC3825F0FDE98FF0A42CCD35F0FC69
:102A6000EB8EF0A4FEA9F0EB8FF0A4CFC5F02ECD35
:102A700039FEE43CFCEAA42DCE35F0FDE43CFC221A
:102A800075F008758200EF2FFFEE33FECD33CDCC0D
:102A900033CCC58233C5829BED9AEC99E582984090
:102AA0000CF582EE9BFEED9AFDEC99FC0FD5F0D66D
:102AB000E4CEFBE4CDFAE4CCF9A88222B800C1B997
:102AC0000059BA002DEC8BF084CFCECDFCE5F0CBD5
:102AD000F97818EF2FFFEE33FEED33FDEC33FCEB0E
:102AE00033FB10D703994004EB99FB0FD8E5E4F9C9
:102AF000FA227818EF2FFFEE33FEED33FDEC33FCB6
:102B0000C933C910D7059BE99A4007EC9BFCE99AA9
:102B1000F90FD8E0E4C9FAE4CCFB2275F010EF2FEE
:102B2000FFEE33FEED33FDCC33CCC833C810D707EE
:102B30009BEC9AE899400AED9BFDEC9AFCE899F829
:102B40000FD5F0DAE4CDFBE4CCFAE4C8F922C3E413
:102B50009FFFE49EFEE49DFDE49CFC22EB9FF5F0CC
:102B6000EA9E42F0E99D42F0E89C45F022E8600FC1
:102B7000ECC313FCED13FDEE13FEEF13FFD8F122AF
:102B8000E86010ECA2E713FCED13FDEE13FEEF136B
:102B9000FFD8F022E8600FEFC333FFEE33FEED33D2
:102BA000FDEC33FCD8F122BB010789828A83022C19
:102BB000155005E9F8022C09BBFE05E9F8022C21A5
:102BC00022E493FC740193FD740293FE740393FF5B
:102BD00022A42582F582E5F03583F58322D083D0C7
:102BE00082F8E4937012740193700DA3A393F874A8
:102BF0000193F5828883E4737402936860EFA3A362
:102C0000A380DF8A838982E473ECF608EDF608EE90
:102C1000F608EFF622ECF0A3EDF0A3EEF0A3EFF050
:102C200022ECF208EDF208EEF208EFF222787FE4EF
:102C3000F6D8FD758177022C74021D8FE493A3F8FA
:102C4000E493A34003F68001F208DFF48029E493C3
:102C5000A3F85407240CC8C333C4540F4420C883BA
:102C60004004F456800146F6DFE4800B01020408BC
:102C700010204080902CFDE47E019360BCA3FF54A3
:102C80003F30E509541FFEE493A360010ECF54C00A
:102C900025E060A840B8E493A3FAE493A3F8E49392
:102CA000A3C8C582C8CAC583CAF0A3C8C582C8CA9A
:102CB000C583CADFE9DEE780BEC2D5E830E70FB2E0
:102CC000D5E4C39BFBE49AFAE499F9E498F8EC3074
:102CD000E717B2D5122CEF122ABCE4C39BFBE49A8F
:102CE000FAE499F9E498F88003122ABC30D50DE48F
:102CF000C39FFFE49EFEE49DFDE49CFC22066A0067
:102D000000000000000169000273000141000100A1
:102D1000460002FF212BFF166141003500480021CB
:102D200000000000000000004100320041003300BC
:102D30000171004100340001770000EE30E707C365
:102D4000E49FFFE49EFE22000B24BC000B25E8005C
:102D50000B2714000B2840000B296C000B2A98004D
:102D60000B2BC4000B2CF0000B2E1C000B2F48006B
:102D70000B3074000B31A0000B32CC000B33F80089
:102D80000B3524000B3650000B377C000B38A800A5
:102D90000B39D4000B3B00000B3C2C000B3D5800C2
:102DA0000B3E84000B3FB0000B40DC000B420800E0
:102DB0000B4334000B4460000B458C000B46B800FD
:102DC0000B47E4000B4910000B4A3C000B4B68001A
:102DD0000B4C94000B4DC0000B4EEC000B50180038
:102DE0000B5144000B5270000B539C000B54C80055
:102DF0000B55F4000B5720000B584C000B59780072
:102E00000B5AA4000B5BD0000B5CFC000B5E28008F
:102E10000B5F54000B6080000B61AC000B62D800AC
:102E20000B6404000B6530000B665C000B678800C8
:102E30000B68B4000B69E0000B6B0C000B6C3800E6
:102E40000B6D64000B6E90000B6FBC000B70E80004
:102E50000B7214000B7340000B746C000B75980020
:102E60000B76C4000B77F0000B791C000B7A48003E
:102E70000B7B74000B7CA0000B7DCC000B7EF8005C
:102E80000B8024000B8150000B827C000B83A80078
:102E90000B84D4000B8600000B872C000B88580095
:102EA0000B8984000B8AB0000B8BDC000B8D0800B3
:102EB0000B8E34000B8F60000B908C000B91B800D0
:102EC0000B92E4000B9410000B953C000B966800ED
:102ED0000B9794000B98C0000C0DF0000C0CC40074
:102EE0000C0B98000C0A6C000C0940000C08140034
:102EF0000C06E8000C05BC000C0490000C036400F8
:102F00000C0238000C010C000BFFE0000BFEB400BB
:102F10000BFD88000BFC5C000BFB30000BFA04007F
:102F20000BF8D8000BF7AC000BF680000BF5540043
:102F30000BF428000BF2FC000BF1D0000BF0A40006
:102F40000BEF78000BEE4C000BED20000BEBF400C8
:102F50000BEAC8000BE99C000BE870000BE744008B
:102F60000BE618000BE4EC000BE3C0000BE294004E
:102F70000BE168000BE03C000BDF10000BDDE40010
:102F80000BDCB8000BDB8C000BDA60000BD93400D3
:102F90000BD808000BD6DC000BD5B0000BD4840096
:102FA0000BD358000BD22C000BD100000BCFD40058
:102FB0000BCEA8000BCD7C000BCC50000BCB24001B
:102FC0000BC9F8000BC8CC000BC7A0000BC67400DF
:102FD0000BC548000BC41C000BC2F0000BC1C400A1
:102FE0000BC098000BBF6C000BBE40000BBD140063
:102FF0000BBBE8000BBABC000BB990000BB8640027
:103000000BB738000BB60C000BB4E0000BB3B400E8
:103010000BB288000BB15C000BB030000BAF0400AA
:103020000BADD8000BACAC000BAB80000BAA54006E
:103030000BA928000BA7FC000BA6D0000BA5A40031
:103040000BA478000BA34C000BA220000BA0F400F3
:103050000B9FC8000B9E9C000B9D70000B9C4400B6
:103060000B9B18000B99EC06080A0C10141820286A
:103070003040506000000001000200030101010225
:1030800001030201020202030301030203030C0C09
:103090000A0B0B0B0B0C0C0C0C0D0E0D0CFC60DA60
:1030A000F266B6BEE0FEF6EE3E9C7A9E8E1A6EE4A6
:1030B0000E1CEC2A3ACEEE7C0200621E00F0F8FCF8
:0130C000FE11
:00000001FF
