:070000000228F30221B522E2
:03000B00021800D8
:030013000220E9DF
:10001B00021CD7EFB42C00400261DD90002C25E0D0
:10002B00730184019801AE01C401DA01F02104616E
:10003B00DD211A21302146215C21722188219E610C
:10004B00DD21B421C921DE21F34109411E41334198
:10005B0048415D41724187419C41B141C641DB61E1
:10006B00DD41F06105611B61306145615A61706171
:10007B00DD6186619C61B261C890FFA4E054CF44FE
:10008B0020F0E054F34408F0D2C2C2C12290FFA486
:10009B00E054CF4420F0E5EC54FC4402F5ECD2C222
:1000AB00C28022E5FF543F4480F5FF90FFA4E0544B
:1000BB00CF4420F0D2B7C2C222E5FF54CF4420F583
:1000CB00FF90FFA4E054CF4420F0D2B6C2C22290DE
:1000DB00FFA4E054CF4420F0E5FF543F4480F5FFEC
:1000EB00D2C2C2B72290FFA4E054F34408F0E0540C
:1000FB00CF4420F0D2C1C2C222E5EC54FC4402F53D
:10010B00EC90FFA4E054CF4420F0D280C2C22290E6
:10011B00FFA4E054F34408F0E5EC54FC4402F5EC86
:10012B00D2C1C2802290FFA4E054F34408F0E5FF53
:10013B00543F4480F5FFD2C1C2B722E5FF54CF44F0
:10014B0020F5FF90FFA4E054F34408F0D2B6C2C1EF
:10015B002290FFA4E054F34408F0E5FF54F3440865
:10016B00F5FFD2C1C2B52290FFA4E054F34408F0CE
:10017B00E5FF54CF4420F5FFD2C1C2B622E5EC54C3
:10018B00FC4402F5EC90FFA4E054F34408F0D28059
:10019B00C2C122E5FF543F4480F5FF90FFA4E05419
:1001AB00F34408F0D2B7C2C122E5FF54CF4420F587
:1001BB00FFE5FF543F4480F5FFD2B6C2B722E5EC12
:1001CB0054FC4402F5ECE5FF54CF4420F5FFD280FC
:1001DB00C2B622E5FF543F4480F5FFE5FF54CF4400
:1001EB0020F5FFD2B7C2B622E5FF54F34408F5FF62
:1001FB0090FFA4E054CF4420F0D2B5C2C222E5FF59
:10020B0054F34408F5FFE5EC54FC4402F5ECD2B58D
:10021B00C28022E5FF543F4480F5FFE5EC54FC44DB
:10022B0002F5ECD2B7C28022E5FF54CF4420F5FF94
:10023B00E5EC54FC4402F5ECD2B6C28022E5FF5447
:10024B00FC4402F5FFE5FF54CF4420F5FFD2B4C2C6
:10025B00B622E5FF54FC4402F5FFE5FF54F34408D6
:10026B00F5FFD2B4C2B522E5FF54F34408F5FFE520
:10027B00FF54FC4402F5FFD2B5C2B422E5FF54CFC4
:10028B004420F5FFE5FF54F34408F5FFD2B6C2B5A1
:10029B0022E5FF54F34408F5FFE5FF543F4480F596
:1002AB00FFD2B5C2B722E5FF543F4480F5FFE5FF0F
:1002BB0054F34408F5FFD2B7C2B522E5FF54F3441B
:1002CB0008F5FFE5FF54CF4420F5FFD2B5C2B622A7
:1002DB00E5FF54CF4420F5FFE5FF54FC4402F5FF46
:1002EB00D2B6C2B422E5FF54FC4402F5FFE5EC5450
:1002FB00FC4402F5ECD2B4C2802290FFA4E054CFB0
:10030B004420F0E5FF54F34408F5FFD2C2C2B522F6
:10031B00E5EC54FC4402F5ECE5FF54F34408F5FF1F
:10032B00D280C2B522E5EC54FC4402F5ECE5FF5457
:10033B00FC4402F5FFD280C2B422E5FF543F448057
:10034B00F5FFE5FF54FC4402F5FFD2B7C2B422908F
:10035B00FFA4E054F34408F0E5FF54FC4402F5FF1E
:10036B00D2C1C2B42290FFA4E054CF4420F0E5FFE9
:10037B0054FC4402F5FFD2C2C2B422E5FF54FC4444
:10038B0002F5FF90FFA4E054CF4420F0D2B4C2C2D8
:10039B002290FFA4E054CF4420F0E5FF54CF44203B
:1003AB00F5FFD2C2C2B622E5FF54F34408F5FF9025
:1003BB00FFA4E054F34408F0D2B5C2C122E5FF54C8
:1003CB00FC4402F5FF90FFA4E054F34408F0D2B4D0
:1003DB00C2C1228F2C8E2B8D2A8C298B2D8A2E8994
:1003EB002F854252854151854050853F4F755300B3
:1003FB0075540C7F007EEB7D417C00AB2CAA2BA9A6
:10040B002AA82912297FE4F553F554740D2554F5C8
:10041B0082742A3553F583E493FEEFC39E400E0599
:10042B0054E55470020553640C455370DEE55425B6
:10043B00E0FFE55333FE741B2FF582742A3EF583E0
:10044B00E493AB2DAA2EA92F1225F5E55425E0FF39
:10045B00E55333FE741A2FF582742A3EF583E49329
:10046B00AB30AA31A9321225F5740D2554F58274DF
:10047B002A3553F583E493FFE4FCFDFEAB2CAA2B4A
:10048B00A92AA8291226F48F4A8E498D488C47E455
:10049B007F07FEFDFCAB42AA41A940A83F1226F400
:1004AB00A804A905AA06AB07AF4AAE49AD48AC47AD
:1004BB0012297FEF2401FFE43EAB33AA34A9358F19
:1004CB00F01226D5E47F07FEFDFCAB42AA41A94002
:1004DB00A83F1226F4A804A905AA06AB07AF4AAE9B
:1004EB0049AD48AC4712297FAC00AD01AE02AF035A
:1004FB00C004C005C006C007E47F07FEFDFCAB428D
:10050B00AA41A940A83F1226F4A804A905AA06AB44
:10051B0007D007D006D005D004C3EF9BFFEE9AFEA1
:10052B00ED99FDEC98FC780C122849C004C005C06D
:10053B0006C007E47F07FEFDFCAB42AA41A940A819
:10054B003F1226F47804122835A804A905AA06AB95
:10055B0007D007D006D005D00412297F8F468E45D1
:10056B008D448C43E4FFFEE5445403FDE4FC78101A
:10057B00122822AB39AA3AA93BEF1225F5E546FF23
:10058B00E545FEAB36AA37A938EE8FF01226D575A6
:10059B005300755401AE53AF54AB07AA06E4F9F8F8
:1005AB00AF42AE41AD40AC3F12297FA804A905AACA
:1005BB0006AB07AF2CAE2BAD2AAC2912297FAE02AE
:1005CB00AF03C006C007E55425E0FFE55333AB0787
:1005DB00FAE4F9F8AF42AE41AD40AC3F12297FC30C
:1005EB00D0E09FFFD0E09EFE122A01EE3395E0FD96
:1005FB00FCC004C005C006C007E55425E0FFE55369
:10060B0033AB07FAE4F9F8AF42AE41AD40AC3F1261
:10061B00297FD003D002D001D000C3EF9BFBEE9A11
:10062B00FAED99F9EC98F8AE53AF54E4FCFD1226B1
:10063B00F48F4E8E4D8D4C8C4BAF52AE51AD50ACAA
:10064B004FAB4EAA4DA94CA84BC3122811500C8589
:10065B004E52854D51854C50854B4F0554E554708A
:10066B00020553C39404E55394005002A1A07553A3
:10067B0000755408AE53AF54AB07AA06E4F9F8AFB4
:10068B0042AE41AD40AC3F12297FA804A905AA0692
:10069B00AB07AF2CAE2BAD2AAC2912297FAE02AF24
:1006AB0003C006C007E55425E0FFE55333AB07FA5B
:1006BB00E4F9F8AF42AE41AD40AC3F12297FC3D055
:1006CB00E09FFFD0E09EFE122A01EE3395E0FDFC89
:1006DB00C004C005C006C007E55425E0FFE5533351
:1006EB00AB07FAE4F9F8AF42AE41AD40AC3F12298B
:1006FB007FD003D002D001D000C3EF9BFBEE9AFA60
:10070B00ED99F9EC98F8AE53AF54E4FCFD1226F4D6
:10071B008F4E8E4D8D4C8C4BAF52AE51AD50AC4F6E
:10072B00AB4EAA4DA94CA84BC3122811500C854EA9
:10073B0052854D51854C50854B4FAB42AA41A94038
:10074B00A83F7F007EE07D2E7C0012297FAB52AA52
:10075B0051A950A84F1226F4AB3CAA3DA93E122832
:10076B005C7F012290002CE064086002E1F89000AD
:10077B0033E004F0E024FE601824FD601F24FC60CD
:10078B002D24FD604224FD605A240E70607D1C8078
:10079B00027D1BE4FF121D917D1C80097D1BE4FF74
:1007AB00121D917D1B7F01121D917D1C80107D1BE5
:1007BB00E4FF121D917D1B7F01121D917D1B7F029A
:1007CB00121D917D1C80177D1BE4FF121D917D1B5B
:1007DB007F01121D917D1B7F02121D917D1B7F03DB
:1007EB00021D91E4900033F07F06120E2C22C2DB27
:0407FB0053D8382275
:100800008F158E148D138C12E4FF1221F27F2D129E
:1008100025ED8E1F8F20E51F54F7FCAD207F2D1294
:1008200022407F0A1225ED8E1F8F20AC1FE5205439
:10083000EFFD7F0A1222407F3D1225ED8E1F8F2093
:10084000AC1FE52054BFFD7F3D1222407F3C1225A6
:10085000ED8E1F8F20AC1FE52054FDFD7F3C122242
:100860004075300075310075321E753300753400E7
:1008700075351875360075370075381A7539007575
:100880003A00753B1C753C00753D00753E23E475D0
:1008900042C075415DF540F53FFB7A00791DAF150B
:1008A000AE14AD13AC121203DEE51DFCE51925E014
:1008B00025E04CFCE4E51E75F040A4FFEC45F0FE9D
:1008C000EEFCEF451CFD7F08122240AC1AE51B44EC
:1008D00001FD7F091222407F0E1225ED8E1F8F2011
:1008E000AC1FE5204480FD7F0E1222407F0E1225B2
:1008F000ED8E1F8F20E51F4401FCAD207F0E1222DC
:10090000407F027E0012235D7F0E1225ED8E1F8F29
:1009100020E51F54FEFCAD207F0E12224012222E35
:100920007F0D1225ED8E1F8F20E51F540813131322
:10093000541FF520751F0075160175172CE520450D
:100940001F702D7F0AFE12235D7F0D1225ED8E1F75
:100950008F20E51F5408131313541FF520751F0033
:10096000E517151770021516E517451670CFFF220B
:100970007F2E1225ED8E1F8F20E51F541CF5277545
:1009800028001313543FF528752700C39403E52767
:10099000940040087527007528078012E52825E097
:1009A000FFE52733FEEF2403F528E43EF527E5288D
:1009B00025E025E0FEE51F54E3AD204EF51FEDF5E3
:1009C000207F2D1225ED8E218F22E5214408FCADDC
:1009D000227F2D122240AD20AC1F7F2E1222407F9D
:1009E0002A1225ED8E1F8F20E520547EFFE4C313CD
:1009F000F527EF13F5287F3D1225ED8E1F8F20AED2
:100A00001FE52054804440FFE5274EFCE5284FFDBC
:100A10007F3D1222407F0A1225ED8E1F8F20AC1FD2
:100A2000E5204410FD7F0A1222407F3C1225ED8E06
:100A30001F8F20AC1FE5204402FD7F3C1222401294
:100A4000222E7F0D1225ED8E1F8F20E51F540813D7
:100A50001313541FF520751F0075160175172CE52B
:100A600020451F702E7F0D1225ED8E1F8F20E51F54
:100A70005408131313541FF520751F007F0A7E00BE
:100A800012235DE517151770021516E51745167048
:100A9000CEFF227F0A7E0012235D1222107F0122E8
:100AA000E565600BE4F5657564027F0112224BE594
:100AB0006114B41100400281B2900AC325E05002D3
:100AC00005837381A141E7613261426160616C61BC
:100AD0009A61CA61E8810A8138815E818281A1813F
:100AE000A181A381A181AFE4F56190002CE0FF64B6
:100AF000026009EF64016004EFB40B0A90002EE07D
:100B0000700404F0801090002CE0B4030990002FD2
:100B1000E4F0A3740CF090002CE0B40207E4900021
:100B200031F0800A90002CE0640E600281B27F0EEA
:100B3000819E90002CE06006640D600281B27F010E
:100B4000819E90002CE06402600281B290002EE051
:100B5000700281B2E4F0A3F0A3740CF07F03819ED5
:100B600090002CE0600281B27F0B819E90002CE00F
:100B7000B40405757204800D90002CE0B4050A756C
:100B800072041224FC7F05800C90002CE0B40A084B
:100B900012250C7F0A120E2C81AFE4F56190002C17
:100BA000E0FF640470028148EFB405028148EF64FD
:100BB00002600281B290002EE06401600281B27D89
:100BC000017F201225997F0A819EE4F56190002C17
:100BD000E0B402087572047F04120E2C90002CE021
:100BE0006405600281B28178E4F56190002CE064D4
:100BF00005600281B290001BE0700281B275720440
:100C00001225D11224FC7F05819E90002CE0B404B3
:100C100005757204800D90002CE0B4050A7572040D
:100C20001224927F05800C90002CE0B40A08122454
:100C3000A47F0A120E2C8077E4F56190002CE0FF6F
:100C400064046004EFB40506E490001BF022EF6436
:100C500002705F7D017F201225997F0A8040E4F5B4
:100C60006190002CE0B402087572047F04120E2C0F
:100C700090002CE06405703A1225D190001B74019D
:100C8000F022E4F56190002CE06405702590001BD3
:100C9000E0601F7572041225D11224927F05020EA6
:100CA0002C800C90002CE0B402057F07120E2CE47F
:100CB000F561228F118E108D0F8C0E7F031225EDA2
:100CC000EE547FFCAD077F031222407F327E00127C
:100CD000235D7F031225EDEF54FEAC064401FD7F3A
:100CE000031222407F241225EDEE54EF4410FCAD98
:100CF000077F241222407F471225EDEE4402FCAD0F
:100D0000077F471222407F0A1225EDEE4402FCAD18
:100D1000077F0A1222407F1C1225EDEE54F1FEEFF0
:100D200054E1AC064402FD7F1C1222407F1E1225B6
:100D3000EDEF54DFAC064420FD7F1E1222407F30D1
:100D40001225EDEE5480441AFC7439FD7F301222D6
:100D5000407F311225EDAC0674EBFD7F311222404D
:100D60007F391225EDEE54FC4403FC74A8FD7F3955
:100D70001222407D367C777F3A1222407F25122551
:100D8000EDEE54C04403FC7422FD7F251222407F07
:100D9000261225EDAC06EF54FBFD7F261222407F84
:100DA0001F1225EDEE5480FEEF54F0FFEE4476FC6A
:100DB000EF4401FD7F1F1222407D127C137F201221
:100DC00022407D147C177F211222407F101225EDD6
:100DD000AC06EF4410FD7F101222407F451225ED36
:100DE000EF54F0AC064407FD7F451222407F2D12E0
:100DF00025EDEF54F8AC064403FD7F2D1222407F11
:100E0000011221D4AF11AE10AD0FAC0E120800EFDD
:100E100060177F2A1224597F011220007F02121EC0
:100E2000A77F011220287F01227F002290002CEF53
:100E3000F024FEB40D004002E138900E4425E0504D
:100E400002058373C15FC16DC17FC18CC198C1AD03
:100E5000E138C1DDC1E0C1EEE11DE138E12E227FC4
:100E6000011213691224C81224B602167B7F0112E4
:100E7000224BE4FF1220281225C7122267E131120B
:100E8000210E7F02121369122283800812167B7FC3
:100E9000021213697FE880417F2A12245912205AD6
:100EA000121F34121E4512229F7F78E1337F0112F8
:100EB00020007F0B122459900017E06004E4F080BA
:100EC00008900019E0900017F01224B61222BB120D
:100ED000210E7F031213697F207E0380580222BBFC
:100EE000121FE17F011213697F907E0180479000FD
:100EF0002FE4F0A37405F0E4FF12224B7F011220CF
:100F00000090001CE06004E4F0800690001C740176
:100F1000F01224C8121D9E7F907E01801812219627
:100F200090001FE0FF1200067F907E0180071223D1
:100F3000437FC87E001225DB2290002CE064016014
:100F400002E1FC900032E004F0E024F6603A24FE76
:100F5000604F24FE606424FE607924FE7002E1EF9D
:100F600024116002E1FC1223C0D2A1121C481222FB
:100F7000D77F7012209E7D1AE4FF121D917D117F94
:100F800001121D917D0F805B7D1CE4FF121D917D80
:100F90001C7F01121D917D1C7F02121D917D11800D
:100FA000497D1CE4FF121D917D1C7F01121D917D66
:100FB000117F02121D91E4FD80307D1CE4FF121DA3
:100FC000917D117F01121D91E4FD7F02121D917D23
:100FD0000180177D11E4FF121D91E4FD7F01121DB8
:100FE000917D017F02121D917D1C7F03021D91E402
:0D0FF000900032F01217547F02120E2C22D6
:10100000E4FFEF75F003A42455F8E654FEF60FBF95
:1010100004F020C803435501209303435801209254
:1010200003435B01209103435E01E4FFEF75F0038E
:10103000A42455F8E6FE1313135401FDEE5401FEEB
:101040006D5E540125E0FEEF75F003A42455F8E62B
:1010500054FD4EF6E6FEC3135401FDEE54016DFE41
:10106000EF75F003A42455F8E6FD13131354016E35
:10107000540125E025E0FEEF75F003A42455F8EDBA
:1010800054FB4EF6E6FE540133333354F8FDEF754E
:10109000F003A42455F8EE54F74DF6E6FE131313AF
:1010A000541F20E00CEF75F003A42456F8E4F60872
:1010B000F60FEF64046002012CE55520E016E558B8
:1010C00020E011E55B20E00CE55E20E007E4F5623E
:1010D000F56380091223EE75660A75650112239087
:1010E000E563700912215412217512142522900013
:1010F0002CE0FF6403700221D6EF6401700221D658
:101100002081681224308E088F09D3E5099418E5F0
:1011100008940D40028069D3E5099494E508940C85
:1011200040028072D3E50994DCE508940B4002800C
:101130007FD3E5099454E508940B400221CAD3E516
:101140000994E6E508940A400D6370FFE5706002BB
:101150008078E4FF807AD3E5099400E508940040A4
:1011600072E4FF1225BD7F03020E2C308168122429
:10117000308E088F09D3E5099418E508940D4004D2
:101180007F04804CD3E5099494E508940C400F63E8
:1011900070FFE57060047F0380367F048032D3E502
:1011A0000994DCE508940B400F6370FFE570600460
:1011B0007F02801C7F038018D3E5099400E5089422
:1011C0000040106370FFE57060047F0180027F02C1
:1011D0000225BD12175422D390002AE094009000FB
:1011E00029E09400400690002B7401F090002BE061
:1011F000700241A7900029E07002A3E0600241A7BD
:1012000090002BF0A3E024FDB40C00400241A79015
:10121000121925E0500205837341324154415E4169
:1012200067415E41A741A741744189418D41A74172
:101230009B22E4FF1220001225C7121C913081105E
:101240007F0D120E2CE5EE54CF4420F5EEC2A22203
:10125000E4FF805012205A121F347F0880467F041A
:101260001213697F08803D1224C81224B612167B1F
:101270007F028030900018E0FD7F03122377E4FDA9
:101280007F201225997F02801B7F08801790001F06
:10129000E0FD7F071223777F028009E4FD7F2012A3
:1012A00025997F02120E2C22AB07AA06E4F50ED375
:1012B000EB940FEA942740047A277B0FAE02AF032A
:1012C000EF4E600B050E7C007D0A12260780F1E5CB
:1012D0000E14602314603E1460551460662404608C
:1012E0000261687D1CE4FF121D910F121D910F1207
:1012F0001D91E4FD0F806E7D1CE4FF121D910F1205
:101300001D910F121D917C007D0AAF03AE021226C3
:10131000077F0380507D1CE4FF121D910F121D7A80
:101320007C007D0AAF03AE021226077F0380367D64
:101330001C121D617C007D0AAF03AE021226077FDE
:101340000380227C037DE8AF03AE021226077C00F7
:101350007D0A122607121D61AE02AF037C007D0AD2
:101360001226077F03121D9122122445EFC454F068
:10137000FE900021E04EF0A3E0F090001AE0900013
:10138000216005E044038003E04402F0A3E0F09014
:101390000018E0FF900021E0122055E47B64FAF988
:1013A000F812277F7808122822780812284912207C
:1013B00050E47B64FAF9F812277F7808122822C3D8
:1013C00074FF9FFFE49EFE122050E47B64FAF9F85C
:1013D00012277F7808122849900025122053E47BB9
:1013E00064FAF9F812277FC374FF9FFFE49400FEAC
:1013F000900025E04EF0A3E04FF0900017E0FDFED6
:10140000900027E04EF0A3E0F0C374FF9DFFE4944A
:1014100000FE900027E04EF0A3E04FF07B017A0041
:101420007921021BFBE55530E336C3E55794F4E51B
:1014300056940150080557E55770020556E5576464
:101440001045567003756103E557643245567003C5
:10145000756104E557B45E08E556B401037561058E
:10146000E55830E329C3E55A94F4E559940150084E
:10147000055AE55A70020559E55A64194559700331
:10148000756108E55A640445597003756109E55BA7
:1014900030E329C3E55D94F4E55C94015008055DF3
:1014A000E55D7002055CE55D6419455C700375617E
:1014B0000CE55D6404455C700375610DE55E30E329
:1014C0001EC3E56094F4E55F940150080560E56093
:1014D0007002055FE5606432455F7003756110223C
:1014E000E57260021572E5726002A1746371FF908B
:1014F000002CE064047025E5716005122283801CD5
:101500007D1CE4FF121D917D1C7F01121D917D1C2D
:101510007F02121D917D1C7F03121D9190002CE013
:1015200064057025E571600512167B801C7D1CE446
:10153000FF121D917D1C7F01121D917D1C7F0212E7
:101540001D917D1C7F03121D9190002CE06407709B
:1015500023E57160030222BB7D1CE4FF121D917D17
:101560001C7F01121D917D1C7F02121D917D1C7F2D
:1015700003121D9122EF12287615A11015A6201531
:10158000AB3015B04015B55015BA6015C37015CC09
:101590008015D59015DEA015E7B015F0D000001528
:1015A000F390FFC1802090FFC1802490FFC180286C
:1015B00090FFC1802C90FFC1803090FFC1E044209B
:1015C000F0803090FFC3E04401F0802790FFC3E03B
:1015D0004402F0801E90FFC3E04404F0801590FFA9
:1015E000C3E04408F0800C90FFC3E04410F0800397
:1015F00043A640E5D8540F4FF5D822900001E004EF
:10160000F0E0C394034005E4F01214E0120F391225
:10161000076F121B04900019E004F0E0B4FF03749C
:1016200001F0900020E06030E4F090002CE07028A1
:101630007F0D120E2C1223C0D2A1121C481222D7E9
:101640007F7012209E90002FE4F0A37405F0E5EE69
:1016500054CF4420F5EEC2A290002CE0B40D1B2024
:101660008118E5EE54CF4420F5EED2A290002FE48D
:10167000F0A37405F0E4FF120E2C2290001AE06033
:1016800035900016E02432F50A7D0BE4FF121D911F
:10169000E50AB464047D1D80027D1B7F01121D914B
:1016A000E50A75F06484E5F075F00A84FD7F0212A6
:1016B0001D91E50A80267D0AE4FF121D917D1B7FA6
:1016C00001121D91900016E075F06484E5F075F04C
:1016D0000A84FD7F02121D91900016E075F00A84C5
:1016E000ADF07F03121D9122D390001EE0940A906A
:1016F000001DE09400405C90002CE0640270549067
:10170000001CE0604E900034E004F0E0B4011C7D69
:101710001CE4FF121D91E4FD7F01121D91E4FD7F89
:1017200002121D917D1C7F03021D91900034E0B4D4
:1017300002217D1CE4FF121D917D1C7F01121D9171
:101740007D1C7F02121D917D1C7F03121D91E49070
:101750000034F02212246CE5EE54CF4420F5EED292
:10176000A2750D80750C38750B01750A007F01128A
:1017700025EDEF64547003EE644B602BE50D24FF00
:10178000F50DE50C34FFF50CE50B34FFF50BE50A20
:1017900034FFF50AAF0DAE0CAD0BFC4D4E4F70CDC6
:1017A0007FB87E221212A812205A120CB390001891
:1017B000E0FF121FB8E4FF12224B7F01021369E41D
:1017C000FF90000AF0A37464F090000EE4F0A3749C
:1017D00014F0EF25E025E0240AF582E43400F583D7
:1017E000E0FCA3E0FDEF25E025E02408F582E434E9
:0D17F00000F583ECF0A3EDF00FBF02D62250
:10180000C0E0C0F0C083C082C0D075D000C000C0AE
:1018100001C002C003C004C005C006C0070577E5CB
:1018200077B40406757700121000D390002AE09474
:1018300000900029E09400400CA3E024FFF0900009
:1018400029E034FFF0121E0F1225B1D007D006D0C8
:1018500005D004D003D002D001D000D0D0D082D0A7
:1018600083D0F0D0E032E4F508F508E50825E0255E
:10187000E02408F582E43400F583E0FEA3E04E7036
:1018800040E50825E025E0240AF582E43400F583EC
:10189000E0FEA3E0FFE50825E025E02408F582E46A
:1018A0003400F583EEF0A3EFF0E50875F003A4240F
:1018B00002F582E43400F583A3E0FAA3E0F91228EC
:1018C0009C0508E508C3940240A12212241AEF6087
:1018D000337F021223D7900016EFF07F031223D735
:1018E000900018EFF07F041223D7900017EFF07FDD
:1018F000051223D790001CEFF07F071223D790002A
:101900001FEFF0229000167401F09000187405F09B
:10191000E4900017F090001C04F0E490001FF07DAC
:1019200012FF1223777D127F01122377121E4522A8
:1019300090FFA4E054CFF0E054F3F053ECFC53FFDD
:101940003F53FFCF53FFF353FFFC0567E567D39485
:1019500007400FE4F5670568E568D394054003E4A4
:10196000F568746A2568F8E6FD7C0074807E00A83E
:1019700067088006CEA2E713CE13D8F8FFEE5CFE10
:10198000EF5D4E600CE56875F008A42567FF120056
:101990001E2290FFD574FFF0F5FCF5ECE4F580A372
:1019A00074FFF0F5FDF5EDE4F590A374FFF0F5FE9E
:1019B000F5EEE4F5A0A374FFF0F5FFF5EFE4F5B064
:1019C00090FFE574FFF090FFB4F090FFA4F0E4F511
:1019D000C090FFE674FFF090FFB5F090FFA5F0E433
:1019E000F5C890FFE774FFF090FFB9F090FFA9F001
:1019F000E4F5E82290001CE0600E90001EE004F088
:101A0000700690001DE004F090001DE07004A3E05B
:101A1000640A700C90002CE0B402057F0102224B96
:101A200090001DE0B40111A3E0B42C0C90002CE058
:101A3000B40205E4FF02200090001DE0B40311A3EE
:101A4000E0B4840C90002CE0B402057F03120E2C4D
:101A5000228D11751201EF24F0F51325E0FFF5D367
:101A6000E513C41313135401FEF5D275D10BADD594
:101A7000ED651160338FD38ED28511D512251C757B
:101A8000D7A575D7F175D10912252BE51325E0F5FA
:101A9000D3E513C41313135401F5D275D10BADD58F
:101AA000ED65116003E4F512AF12228D2AEF75F097
:101AB00003842434F52BEF75F00384C3740295F08E
:101AC00075F005A4F52CAF2B1225EDAD07AC06740F
:101AD0001F7E00A82C088005C333CE33CED8F9F47E
:101AE000FFEEF45CFCEF5DFD7E00E52AA82C08808B
:101AF00005C333CE33CED8F9FFEE4CFCEF4DFDAF2E
:101B00002B02224090001CE06051122557EF603CF0
:101B100090002CE064027034D390001EE0942C906E
:101B2000001DE09401400CE4FF12224B7F011220C3
:101B3000008014D390001EE0940A90001DE09400F1
:101B40004012E4FF12224B12167B800890002CE01A
:101B500064026007E490001DF0A3F0227F647E0021
:101B600012235D12199290FFA5E054FC4401F0E5A8
:101B7000ED54F34404F5EDE5ED54CF4410F5EDE5F7
:101B8000ED543F4440F5ED1207F953EFFC121C9160
:101B9000E5EE54CF4420F5EED2A2C2A2E5EE54F316
:101BA0004408F5EEC2A153ECF3022580AC07A90569
:101BB000E4FBFA1222F2EC121ED7EF6036AF0112EC
:101BC0001F8E121EDDEF602B1222F2EC4401121E5A
:101BD000D9EF601F121E77EFFA1225B0C2EB122563
:101BE000ABC2EA1225B0D2EB1225B0121E77EFFB82
:101BF0001225B012230DAE02AF03228B0E8A0F897D
:101C000010122672FDACF07F12122240AB0EAA0F0A
:101C1000A91090000212269DFDACF07F1312224005
:101C2000AB0EAA0FA91090000412269DFDACF07F08
:101C300014122240AB0EAA0FA91090000612269D86
:101C4000FDACF07F17022240E4FFEF75F003A424FF
:101C500055F8E654FEF654FDF654FBF654F7F6EF4D
:101C600075F003A42456F8E4F608F60FBF04DB90E1
:101C7000FFA5E054FC4401F0E5ED54F34404F5ED18
:101C8000E5ED54CF4410F5EDE5ED543F4440F5ED5E
:101C90002290FFA4E054CF4420F0E054F34408F035
:101CA000E5EC54FC4402F5ECE5FF543F4480F5FFBD
:101CB000E5FF54CF4420F5FFE5FF54F34408F5FF5A
:101CC000E5FF54FC4402F5FFC2C2C2C1C280C2B7E4
:101CD000C2B6C2B5C2B422C0E0C0F0C083C082C0E8
:101CE000D075D000C000C001C002C003C004C00550
:101CF000C006C00790002CE0600512193080031266
:101D00001C91D007D006D005D004D003D002D0015A
:101D1000D000D0D0D082D083D0F0D0E03275A6856C
:101D20001225B11223A81225731225E412258D1253
:101D300022D7121C487F7012209EE5EE54CF44201B
:101D4000F5EED2A290002FE4F0A37405F01220C4A7
:101D500012213112247F1218661211D7120AA080A4
:101D6000F5E4FF121D917C007D64AF03AE021226E4
:101D7000077C007D0A1226077F01121D917C007DE1
:101D80000AAF03AE021226077C007D0A1226077FE7
:101D900002ED902A4393FE746A2FF8A60622900063
:101DA0001CE07D0A6017E4FF121D91E4FD7F011223
:101DB0001D917D167F02121D917D1C8015E4FF127E
:101DC0001D91E4FD7F01121D917D0F7F02121D9177
:101DD0007D0F7F03121D9122A907AC058B2DAF0249
:101DE000AB071222F2E9121ED7EF601EAF04121FDA
:101DF0008E121EDDEF6013AF03121F8E121EDDEF79
:101E00006008AF2D121F8E121EDDC2EA02230DE400
:101E1000FFEF25E025E02408F582E43400F583E0B7
:101E2000FCA3E0D39400EC94004015EF25E025E0FE
:101E30002408F582E43400F58374FFF5F012265C83
:101E40000FBF02CD22900016E0FD7F021223779093
:101E50000018E0FD7F03122377900017E0FD7F0458
:101E600012237790001CE0FD7F0512237790001F5E
:101E7000E0FD7F07022377E4FF90FFA9E0543F4491
:101E800040F0E4FEEF25E0FF1225ABA2EBE4334285
:101E9000071225B0C2EA0EBE08EA1225B090FFA9CB
:101EA000E0543F4480F0228F127F1F1225EDAD07D2
:101EB000AC06E51275F080A4FFEC54FEFCED547FF7
:101EC000FDE5F04CFCEF4DFD7F1F1222407F147E9C
:101ED0000012235D7F012254FEFF121F8E90FFA986
:101EE000E0543F44401225A51225B0A2EBE433FF95
:101EF0001225B0C2EA1225B0E0543F4480F0EF7FD3
:101F00000070027F0122D3900030E0940090002FF7
:101F1000E09400401E90002CE07018900030E02407
:101F2000FFF090002FE034FFF0E07002A3E07003B8
:101F3000121B5C228F0D8E0C8D0B8C0AE4FF12207D
:101F4000287F647E0012235DAF0DAE0CAD0BAC0A92
:101F50001208007F01122028E4FF121F627F010295
:101F60001F62EF7F1F600C1225ED8E0E8F0F430E48
:101F700040800A1225ED8E0E8F0F530EBFAD0FACB1
:101F80000E7F1F1222407F147E0012235D22E4FE8A
:101F9000FD1225B0EF5480FE64806004C2EB800225
:101FA000D2EB1225B0EF25E0FF1225ABC2EA1225D5
:101FB000B00DBD08DC0225B08F0E7F1C1225EDADE3
:101FC00007AC06E50E75F020A4FFEC54FEFCED54C2
:101FD0001FFDE5F04CFCEF4DFD7F1C1222407F0100
:101FE000227D1AE4FF121D917D1B7F01121D91E4D9
:101FF000FD7F02121D91900018E0FD7F03021D91EC
:102000008F128512757F0F1225EDAD07AC06E51214
:1020100075F008A4FFED54F7FDEC45F0FCED4FFD25
:102020007F0F1222407F01228F127F1F1225EDADFC
:1020300007AC06E512C43333335480FEEC547F4EB4
:10204000FC7F1F1222407F147E0012235D7F01223D
:10205000900023E04EF0A3E04FF0900016E0FF7EEA
:10206000007C017D2C1228A2EF24A0FFEE344AFE52
:10207000ED340BFDE43CFC221216E8900000E00475
:10208000F0E0C394024005E4F01219F490002CE053
:1020900060031210EE121F061224EC022549AC0751
:1020A00090FFADE4F075A685FB7D017F6012253AB7
:1020B00090FF60E04480F0AF04121575D2DB0000A1
:1020C00000D2DA2290FFCAE054F8F0E04407F0535F
:1020D00089F0438902C28C758C62758A6253B8FD9F
:1020E000D28DD28CD2A9D2AF22C0E0C083C082E50B
:1020F000AC30E11375AC3890002FE4F0A37405F018
:102100009000207401F000D082D083D0E0327FF8BC
:102110007EEE7D097C00121F3490001AE060067F7D
:10212000187EF280047FF87EEE7D097C00121F3459
:102130002290FFCAE0548FF0E044F0F05389CF437F
:102140008920C28E758DFD758BFD43B808D28ED265
:10215000ABD2AF22E55530E103756101E55830E1BE
:1021600003756106E55B30E10375610AE55E30E108
:102170000375610E22E55530E203756102E55830C2
:10218000E203756107E55B30E20375610BE55E30E4
:10219000E20375610F227D0EE4FF121D917D0C7F1D
:1021A00001121D917D1B7F02121D9190001FE0FD09
:1021B0007F03021D91C0E0C083C082E5AC30E00D1A
:1021C00075AC3890002FE4F0A37405F000D082D0F5
:1021D00083D0E0328F127F241225EDAD07AC06E5E7
:1021E00012C454F0FEEC54EF4EFC7F241222407FC8
:1021F00001228F2A7F341225EDAD07AC06E52AC4F3
:102200003333335480FEEC547F4EFC7F3402224043
:102210007F011221F2E4F529E529902A3493FDAFDC
:1022200029121AAB0529E529C3940F40EB227F0A36
:102230001225ED8E1F8F20AC1FE5204420FD7F0A64
:10224000AB05AA04AD077F6A021DD88F0E850E76F6
:102250007F1C1225EDEF54FEFFEEFCEF450EFD7FD7
:102260001C1222407F01227D1CE4FF121D91E4FD1F
:102270007F01121D917D0F7F02121D917D0F7F0343
:10228000021D917D05E4FF121D917D0E7F01121D3F
:10229000917D147F02121D917D1C7F03021D917D93
:1022A0001CE4FF121D91E4FD7F01121D917D137F3F
:1022B00002121D917D1C7F03021D917D1CE4FF1203
:1022C0001D917D017F01121D917D0D7F02121D91D7
:1022D0007D1C7F03021D9190FFA4E054CFF0E054D9
:1022E000F3F053ECFC53FF3F53FFCF53FFF353FF87
:1022F000FC2290FFA9E0543F4480F0E054CF4420FA
:102300001225A5C2EB1225B0C2EA0225B090FFA9A2
:10231000E0543F4480F01225B0C2EA1225B0C2EB6F
:102320001225ABD2EB0225B090FFA2E0FF5307EEDF
:10233000430701EFF090FFA0E0FF5307F543070AC2
:10234000EFF022900031E0F4F06007121FE17D0110
:10235000800512167BE4FD7F2012259922EF4E6046
:1023600015E4FDFC0DBD00010CBC02F8BD59F5EFF4
:102370001F70EA1E80E7228F0E8D0F75100AAD0FB9
:10238000AF0E121A51EF7007E510D3940050EF22F0
:10239000E55530E012E55830E00D7563010562E562
:1023A00062B4320375611122E59154FB759237F5E1
:1023B00091E59120E2FB7F0A7E001224DA02256576
:1023C000E5EE54F34408F5EE53EFFC53ECF3E5ED82
:1023D00054FC4401F5ED22EF24F0FF25E0F5D3EFA6
:1023E000C41313135401F5D275D10BAFD52290FF4E
:1023F000D5E04401F090FFD8E044F0F090FFE5E034
:102400004406F02290FFD5E054FEF090FFD8E0544F
:102410000FF090FFE5E054F9F022E4FF1223D7BF5C
:10242000120B7F011223D7BF12037F01227F0022EC
:10243000D2DB000000D2DA20DAFDD2DAAFDAEFFE2A
:10244000ADD9EDFF22E4900021F0A3F0A3F0A3F0BA
:10245000A3F0A3F0A3F0A3F0228F127F111225EDB9
:10246000AD12EEFC7F111222407F01221218CB30F8
:10247000900790001A7401F022E490001AF0229064
:10248000FFE1E04401F0D2A8D288D2AAD28A75AC8A
:102490003822900016E0B401047432F02290001645
:1024A000E014F022900018E0B401047401F02290CE
:1024B0000018E014F022900017E060047D01800213
:1024C000E4FD7F101225992290001CE06004E4FDD9
:1024D00080027D017F8012259922E4FDFCC3ED9FDF
:1024E000EC9E50070DBD00010C80F222E564D394F0
:1024F000004008D56405E4FF12224B22900016E04C
:1025000004F0E0D3943240037401F022900018E00C
:1025100004F0E0D3940940037409F022C2ABC28EE8
:10252000758D05758B05D2ABD28E22C2ABC28E756E
:102530008DFD758BFDD28E02213190FFAEE0FEEF56
:102540004D4B4410FFEE4FF022E566D39400400659
:10255000D56603122404227F251225EDEE7F00208C
:10256000E6027F0122E59154FCFF43070375923791
:102570008F91221219921223C0E4F5D275D6192236
:1025800053A67F12232875923743870222C2A1E403
:1025900090002CF090002EF022ED6004EF426F22AC
:1025A000EFF4526F22F01225B0D2EB1225B0D2EA2E
:1025B00022E4F5DEF5DF75DE5375DFAC228F69EFBF
:1025C000902A6293F56E227F06786AE4F608DFFCB3
:1025D00022E4F55CF55DF559F55A22900029EEF0FC
:1025E000A3EFF022121866121E0F0217BFAD077F6D
:1025F0006B121BAC22BB010689828A83F022500237
:10260000F722BBFE01F322BC000BBE0029EF8DF0C8
:1026100084FFADF022E4CCF875F008EF2FFFEE3325
:10262000FEEC33FCEE9DEC984005FCEE9DFE0FD5D4
:10263000F0E9E4CEFD22EDF8F5F0EE8420D21CFEA8
:10264000ADF075F008EF2FFFED33FD400798500611
:10265000D5F0F222C398FD0FD5F0EA22C5F0F8A319
:10266000E028F0C5F0F8E582158270021583E038A5
:10267000F022BB010A89828A83E0F5F0A3E02250B0
:102680000687F009E71922BBFE07E3F5F009E31915
:102690002289828A83E493F5F074019322BB0110AE
:1026A000E58229F582E5833AF583E0F5F0A3E0229F
:1026B0005009E92582F886F008E622BBFE0AE925E2
:1026C00082F8E2F5F008E222E5832AF583E993F542
:1026D000F0A3E99322BB010A89828A83F0E5F0A383
:1026E000F0225006F709A7F01922BBFE06F3E5F029
:1026F00009F31922E88FF0A4CC8BF0A42CFCE98E0E
:10270000F0A42CFC8AF0EDA42CFCEA8EF0A4CDA859
:10271000F08BF0A42DCC3825F0FDE98FF0A42CCD62
:1027200035F0FCEB8EF0A4FEA9F0EB8FF0A4CFC542
:10273000F02ECD39FEE43CFCEAA42DCE35F0FDE4CC
:102740003CFC2275F008758200EF2FFFEE33FECDC2
:1027500033CDCC33CCC58233C5829BED9AEC99E561
:102760008298400CF582EE9BFEED9AFDEC99FC0FF1
:10277000D5F0D6E4CEFBE4CDFAE4CCF9A88222B8B9
:1027800000C1B90059BA002DEC8BF084CFCECDFC3E
:10279000E5F0CBF97818EF2FFFEE33FEED33FDECCB
:1027A00033FCEB33FB10D703994004EB99FB0FD8B4
:1027B000E5E4F9FA227818EF2FFFEE33FEED33FD52
:1027C000EC33FCC933C910D7059BE99A4007EC9B51
:1027D000FCE99AF90FD8E0E4C9FAE4CCFB2275F0E1
:1027E00010EF2FFFEE33FEED33FDCC33CCC833C8F2
:1027F00010D7079BEC9AE899400AED9BFDEC9AFCF8
:10280000E899F80FD5F0DAE4CDFBE4CCFAE4C8F9A6
:1028100022EB9FF5F0EA9E42F0E99D42F0E89C45EC
:10282000F022E8600FECC313FCED13FDEE13FEEF96
:1028300013FFD8F122E86010ECA2E713FCED13FDC2
:10284000EE13FEEF13FFD8F022E8600FEFC333FF63
:10285000EE33FEED33FDEC33FCD8F122BB010789EA
:10286000828A830228DB5005E9F80228CFBBFE05E7
:10287000E9F80228E722D083D082F8E4937012743A
:102880000193700DA3A393F8740193F5828883E4F8
:10289000737402936860EFA3A3A380DF8A838982A5
:1028A000E473EC8EF0A4CCC5F0CCCDF8EFA4CEC58B
:1028B000F02DFDE43CFCE8A42EC8C5F03DFDE43C51
:1028C000FCEFA4FFE5F028FEE43DFDE43CFC22EC37
:1028D000F608EDF608EEF608EFF622ECF0A3EDF0C0
:1028E000A3EEF0A3EFF022ECF208EDF208EEF2080E
:1028F000EFF222787FE4F6D8FD75817702293A025B
:102900001D1DE493A3F8E493A34003F68001F208AD
:10291000DFF48029E493A3F85407240CC8C333C41C
:10292000540F4420C8834004F456800146F6DFE487
:10293000800B01020408102040809029C3E47E012E
:102940009360BCA3FF543F30E509541FFEE493A3FA
:1029500060010ECF54C025E060A840B8E493A3FA0C
:10296000E493A3F8E493A3C8C582C8CAC583CAF098
:10297000A3C8C582C8CAC583CADFE9DEE780BEC274
:10298000D5E830E70FB2D5E4C39BFBE49AFAE499AB
:10299000F9E498F8EC30E717B2D51229B512277F81
:1029A000E4C39BFBE49AFAE499F9E498F8800312F3
:1029B000277F30D50DE4C39FFFE49EFEE49DFDE438
:1029C0009CFC22066A0000000000000169000273FE
:1029D000000141000100460002FF2078FF15FB4185
:1029E0000035004800210000000000000000410008
:1029F00032004100330001710041003400017700D2
:102A000000EE30E707C3E49FFFE49EFE2206080ABB
:102A10000C10141820283040506000000001000203
:102A2000000301010102010302010202020303018A
:102A3000030203030C0C0A0B0B0B0B0C0C0C0C0D00
:102A40000E0D0CFC60DAF266B6BEE0FEF6EE3E9CC1
:102A50007A9E8E1A6EE40E1CEC2A3ACEEE7C0200B0
:072A6000621E00F0F8FCFE0D
:00000001FF
